{
  "_format": "hh-sol-artifact-1",
  "contractName": "MainModuleGasEstimation",
  "sourceName": "contracts/modules/MainModuleGasEstimation.sol",
  "abi": [
    {
      "anonymous": false,
      "inputs": [
        {
          "indexed": false,
          "internalType": "address",
          "name": "_contract",
          "type": "address"
        }
      ],
      "name": "CreatedContract",
      "type": "event"
    },
    {
      "anonymous": false,
      "inputs": [
        {
          "indexed": false,
          "internalType": "bytes32",
          "name": "newImageHash",
          "type": "bytes32"
        }
      ],
      "name": "ImageHashUpdated",
      "type": "event"
    },
    {
      "anonymous": false,
      "inputs": [
        {
          "indexed": false,
          "internalType": "address",
          "name": "newImplementation",
          "type": "address"
        }
      ],
      "name": "ImplementationUpdated",
      "type": "event"
    },
    {
      "anonymous": false,
      "inputs": [
        {
          "indexed": false,
          "internalType": "uint256",
          "name": "_space",
          "type": "uint256"
        },
        {
          "indexed": false,
          "internalType": "uint256",
          "name": "_newNonce",
          "type": "uint256"
        }
      ],
      "name": "NonceChange",
      "type": "event"
    },
    {
      "anonymous": true,
      "inputs": [
        {
          "indexed": false,
          "internalType": "bytes32",
          "name": "_tx",
          "type": "bytes32"
        }
      ],
      "name": "TxExecuted",
      "type": "event"
    },
    {
      "anonymous": false,
      "inputs": [
        {
          "indexed": false,
          "internalType": "bytes32",
          "name": "_tx",
          "type": "bytes32"
        },
        {
          "indexed": false,
          "internalType": "bytes",
          "name": "_reason",
          "type": "bytes"
        }
      ],
      "name": "TxFailed",
      "type": "event"
    },
    {
      "stateMutability": "payable",
      "type": "fallback"
    },
    {
      "inputs": [
        {
          "internalType": "bytes4",
          "name": "_signature",
          "type": "bytes4"
        },
        {
          "internalType": "address",
          "name": "_implementation",
          "type": "address"
        }
      ],
      "name": "addHook",
      "outputs": [],
      "stateMutability": "nonpayable",
      "type": "function"
    },
    {
      "inputs": [
        {
          "internalType": "bytes",
          "name": "_code",
          "type": "bytes"
        }
      ],
      "name": "createContract",
      "outputs": [
        {
          "internalType": "address",
          "name": "addr",
          "type": "address"
        }
      ],
      "stateMutability": "payable",
      "type": "function"
    },
    {
      "inputs": [
        {
          "components": [
            {
              "internalType": "bool",
              "name": "delegateCall",
              "type": "bool"
            },
            {
              "internalType": "bool",
              "name": "revertOnError",
              "type": "bool"
            },
            {
              "internalType": "uint256",
              "name": "gasLimit",
              "type": "uint256"
            },
            {
              "internalType": "address",
              "name": "target",
              "type": "address"
            },
            {
              "internalType": "uint256",
              "name": "value",
              "type": "uint256"
            },
            {
              "internalType": "bytes",
              "name": "data",
              "type": "bytes"
            }
          ],
          "internalType": "struct IModuleCalls.Transaction[]",
          "name": "_txs",
          "type": "tuple[]"
        },
        {
          "internalType": "uint256",
          "name": "_nonce",
          "type": "uint256"
        },
        {
          "internalType": "bytes",
          "name": "_signature",
          "type": "bytes"
        }
      ],
      "name": "execute",
      "outputs": [],
      "stateMutability": "nonpayable",
      "type": "function"
    },
    {
      "inputs": [],
      "name": "imageHash",
      "outputs": [
        {
          "internalType": "bytes32",
          "name": "",
          "type": "bytes32"
        }
      ],
      "stateMutability": "view",
      "type": "function"
    },
    {
      "inputs": [
        {
          "internalType": "bytes32",
          "name": "_hash",
          "type": "bytes32"
        },
        {
          "internalType": "bytes",
          "name": "_signatures",
          "type": "bytes"
        }
      ],
      "name": "isValidSignature",
      "outputs": [
        {
          "internalType": "bytes4",
          "name": "",
          "type": "bytes4"
        }
      ],
      "stateMutability": "view",
      "type": "function"
    },
    {
      "inputs": [
        {
          "internalType": "bytes",
          "name": "_data",
          "type": "bytes"
        },
        {
          "internalType": "bytes",
          "name": "_signatures",
          "type": "bytes"
        }
      ],
      "name": "isValidSignature",
      "outputs": [
        {
          "internalType": "bytes4",
          "name": "",
          "type": "bytes4"
        }
      ],
      "stateMutability": "view",
      "type": "function"
    },
    {
      "inputs": [],
      "name": "nonce",
      "outputs": [
        {
          "internalType": "uint256",
          "name": "",
          "type": "uint256"
        }
      ],
      "stateMutability": "view",
      "type": "function"
    },
    {
      "inputs": [
        {
          "internalType": "address",
          "name": "",
          "type": "address"
        },
        {
          "internalType": "address",
          "name": "",
          "type": "address"
        },
        {
          "internalType": "uint256[]",
          "name": "",
          "type": "uint256[]"
        },
        {
          "internalType": "uint256[]",
          "name": "",
          "type": "uint256[]"
        },
        {
          "internalType": "bytes",
          "name": "",
          "type": "bytes"
        }
      ],
      "name": "onERC1155BatchReceived",
      "outputs": [
        {
          "internalType": "bytes4",
          "name": "",
          "type": "bytes4"
        }
      ],
      "stateMutability": "nonpayable",
      "type": "function"
    },
    {
      "inputs": [
        {
          "internalType": "address",
          "name": "",
          "type": "address"
        },
        {
          "internalType": "address",
          "name": "",
          "type": "address"
        },
        {
          "internalType": "uint256",
          "name": "",
          "type": "uint256"
        },
        {
          "internalType": "uint256",
          "name": "",
          "type": "uint256"
        },
        {
          "internalType": "bytes",
          "name": "",
          "type": "bytes"
        }
      ],
      "name": "onERC1155Received",
      "outputs": [
        {
          "internalType": "bytes4",
          "name": "",
          "type": "bytes4"
        }
      ],
      "stateMutability": "nonpayable",
      "type": "function"
    },
    {
      "inputs": [
        {
          "internalType": "address",
          "name": "",
          "type": "address"
        },
        {
          "internalType": "address",
          "name": "",
          "type": "address"
        },
        {
          "internalType": "uint256",
          "name": "",
          "type": "uint256"
        },
        {
          "internalType": "bytes",
          "name": "",
          "type": "bytes"
        }
      ],
      "name": "onERC721Received",
      "outputs": [
        {
          "internalType": "bytes4",
          "name": "",
          "type": "bytes4"
        }
      ],
      "stateMutability": "nonpayable",
      "type": "function"
    },
    {
      "inputs": [
        {
          "internalType": "bytes4",
          "name": "_signature",
          "type": "bytes4"
        }
      ],
      "name": "readHook",
      "outputs": [
        {
          "internalType": "address",
          "name": "",
          "type": "address"
        }
      ],
      "stateMutability": "view",
      "type": "function"
    },
    {
      "inputs": [
        {
          "internalType": "uint256",
          "name": "_space",
          "type": "uint256"
        }
      ],
      "name": "readNonce",
      "outputs": [
        {
          "internalType": "uint256",
          "name": "",
          "type": "uint256"
        }
      ],
      "stateMutability": "view",
      "type": "function"
    },
    {
      "inputs": [
        {
          "internalType": "bytes4",
          "name": "_signature",
          "type": "bytes4"
        }
      ],
      "name": "removeHook",
      "outputs": [],
      "stateMutability": "nonpayable",
      "type": "function"
    },
    {
      "inputs": [
        {
          "components": [
            {
              "internalType": "bool",
              "name": "delegateCall",
              "type": "bool"
            },
            {
              "internalType": "bool",
              "name": "revertOnError",
              "type": "bool"
            },
            {
              "internalType": "uint256",
              "name": "gasLimit",
              "type": "uint256"
            },
            {
              "internalType": "address",
              "name": "target",
              "type": "address"
            },
            {
              "internalType": "uint256",
              "name": "value",
              "type": "uint256"
            },
            {
              "internalType": "bytes",
              "name": "data",
              "type": "bytes"
            }
          ],
          "internalType": "struct IModuleCalls.Transaction[]",
          "name": "_txs",
          "type": "tuple[]"
        }
      ],
      "name": "selfExecute",
      "outputs": [],
      "stateMutability": "nonpayable",
      "type": "function"
    },
    {
      "inputs": [
        {
          "components": [
            {
              "internalType": "bool",
              "name": "delegateCall",
              "type": "bool"
            },
            {
              "internalType": "bool",
              "name": "revertOnError",
              "type": "bool"
            },
            {
              "internalType": "uint256",
              "name": "gasLimit",
              "type": "uint256"
            },
            {
              "internalType": "address",
              "name": "target",
              "type": "address"
            },
            {
              "internalType": "uint256",
              "name": "value",
              "type": "uint256"
            },
            {
              "internalType": "bytes",
              "name": "data",
              "type": "bytes"
            }
          ],
          "internalType": "struct IModuleCalls.Transaction[]",
          "name": "_txs",
          "type": "tuple[]"
        }
      ],
      "name": "simulateExecute",
      "outputs": [
        {
          "components": [
            {
              "internalType": "bool",
              "name": "executed",
              "type": "bool"
            },
            {
              "internalType": "bool",
              "name": "succeeded",
              "type": "bool"
            },
            {
              "internalType": "bytes",
              "name": "result",
              "type": "bytes"
            },
            {
              "internalType": "uint256",
              "name": "gasUsed",
              "type": "uint256"
            }
          ],
          "internalType": "struct MainModuleGasEstimation.SimulateResult[]",
          "name": "",
          "type": "tuple[]"
        }
      ],
      "stateMutability": "nonpayable",
      "type": "function"
    },
    {
      "inputs": [
        {
          "internalType": "bytes4",
          "name": "_interfaceID",
          "type": "bytes4"
        }
      ],
      "name": "supportsInterface",
      "outputs": [
        {
          "internalType": "bool",
          "name": "",
          "type": "bool"
        }
      ],
      "stateMutability": "pure",
      "type": "function"
    },
    {
      "inputs": [
        {
          "internalType": "bytes32",
          "name": "_imageHash",
          "type": "bytes32"
        }
      ],
      "name": "updateImageHash",
      "outputs": [],
      "stateMutability": "nonpayable",
      "type": "function"
    },
    {
      "inputs": [
        {
          "internalType": "address",
          "name": "_implementation",
          "type": "address"
        }
      ],
      "name": "updateImplementation",
      "outputs": [],
      "stateMutability": "nonpayable",
      "type": "function"
    },
    {
      "stateMutability": "payable",
      "type": "receive"
    }
  ],
  "bytecode": "0x608060405234801561001057600080fd5b50613f10806100206000396000f3fe60806040526004361061010d5760003560e01c806361c2926c1161009557806390042baf1161006457806390042baf146104ab578063affed0e0146104db578063b93ea7ad14610506578063bc197c811461052f578063f23a6e611461056c57610114565b806361c2926c146103df5780637a9a16281461040857806384dc463c146104315780638c3f55631461046e57610114565b80631a9b2337116100dc5780631a9b2337146102e857806320c13b0b1461032557806329561426146103625780634fcf3eca1461038b57806351605d80146103b457610114565b806301ffc9a714610208578063025b22bc14610245578063150b7a021461026e5780631626ba7e146102ab57610114565b3661011457005b60006101436000357fffffffff00000000000000000000000000000000000000000000000000000000166105a9565b9050600073ffffffffffffffffffffffffffffffffffffffff168173ffffffffffffffffffffffffffffffffffffffff1614610205576000808273ffffffffffffffffffffffffffffffffffffffff16600036604051808383808284378083019250505092505050600060405180830381855af49150503d80600081146101e6576040519150601f19603f3d011682016040523d82523d6000602084013e6101eb565b606091505b5091509150816101fd57805160208201fd5b805160208201f35b50005b34801561021457600080fd5b5061022f600480360381019061022a919061304b565b610601565b60405161023c91906136ae565b60405180910390f35b34801561025157600080fd5b5061026c60048036038101906102679190612c95565b610613565b005b34801561027a57600080fd5b5061029560048036038101906102909190612d8a565b610764565b6040516102a29190613714565b60405180910390f35b3480156102b757600080fd5b506102d260048036038101906102cd9190612ff3565b610779565b6040516102df9190613714565b60405180910390f35b3480156102f457600080fd5b5061030f600480360381019061030a919061304b565b6107f4565b60405161031c9190613671565b60405180910390f35b34801561033157600080fd5b5061034c600480360381019061034791906130b0565b610806565b6040516103599190613714565b60405180910390f35b34801561036e57600080fd5b5061038960048036038101906103849190612fca565b6108a0565b005b34801561039757600080fd5b506103b260048036038101906103ad919061304b565b6109e7565b005b3480156103c057600080fd5b506103c9610b07565b6040516103d691906136c9565b60405180910390f35b3480156103eb57600080fd5b5061040660048036038101906104019190612ee1565b610b3a565b005b34801561041457600080fd5b5061042f600480360381019061042a9190612f22565b610bff565b005b34801561043d57600080fd5b5061045860048036038101906104539190612e9c565b610c96565b604051610465919061368c565b60405180910390f35b34801561047a57600080fd5b5061049560048036038101906104909190613166565b610ff0565b6040516104a291906137e4565b60405180910390f35b6104c560048036038101906104c09190613125565b61102c565b6040516104d29190613671565b60405180910390f35b3480156104e757600080fd5b506104f061110e565b6040516104fd91906137e4565b60405180910390f35b34801561051257600080fd5b5061052d60048036038101906105289190613074565b61111f565b005b34801561053b57600080fd5b5061055660048036038101906105519190612cbe565b61123e565b6040516105639190613714565b60405180910390f35b34801561057857600080fd5b50610593600480360381019061058e9190612e0a565b611256565b6040516105a09190613714565b60405180910390f35b60006105f77fbe27a319efc8734e89e26ba4bc95f5c788584163b959f03fa04e2d7ab4b9a12060001b837bffffffffffffffffffffffffffffffffffffffffffffffffffffffff191661126c565b60001c9050919050565b600061060c826112ab565b9050919050565b3073ffffffffffffffffffffffffffffffffffffffff163373ffffffffffffffffffffffffffffffffffffffff1614610697576040517f08c379a0000000000000000000000000000000000000000000000000000000008152600401808060200182810382526027815260200180613eb46027913960400191505060405180910390fd5b6106b68173ffffffffffffffffffffffffffffffffffffffff1661132d565b61070b576040517f08c379a0000000000000000000000000000000000000000000000000000000008152600401808060200182810382526039815260200180613d9a6039913960400191505060405180910390fd5b61071481611341565b7f310ba5f1d2ed074b51e2eccd052a47ae9ab7c6b800d1fca3db3999d6a592ca0381604051808273ffffffffffffffffffffffffffffffffffffffff16815260200191505060405180910390a150565b600063150b7a0260e01b905095945050505050565b60006107d161078785611347565b84848080601f016020809104026020016040519081016040528093929190818152602001838380828437600081840152601f19601f820116905080830192505050505050506113cd565b156107e557631626ba7e60e01b90506107ed565b600060e01b90505b9392505050565b60006107ff826105a9565b9050919050565b600061087c61083286866040518083838082843780830192505050925050506040518091039020611347565b84848080601f016020809104026020016040519081016040528093929190818152602001838380828437600081840152601f19601f820116905080830192505050505050506113cd565b15610890576320c13b0b60e01b9050610898565b600060e01b90505b949350505050565b3073ffffffffffffffffffffffffffffffffffffffff163373ffffffffffffffffffffffffffffffffffffffff1614610924576040517f08c379a0000000000000000000000000000000000000000000000000000000008152600401808060200182810382526027815260200180613eb46027913960400191505060405180910390fd5b6000801b811415610980576040517f08c379a0000000000000000000000000000000000000000000000000000000008152600401808060200182810382526037815260200180613bc16037913960400191505060405180910390fd5b6109ad7fea7157fa25e3aa17d0ae2d5280fa4e24d421c61842aa85e45194e1145aa72bf860001b826113e8565b7f307ed6bd941ee9fc80f369c94af5fa11e25bab5102a6140191756c5474a30bfa816040518082815260200191505060405180910390a150565b3073ffffffffffffffffffffffffffffffffffffffff163373ffffffffffffffffffffffffffffffffffffffff1614610a6b576040517f08c379a0000000000000000000000000000000000000000000000000000000008152600401808060200182810382526027815260200180613eb46027913960400191505060405180910390fd5b600073ffffffffffffffffffffffffffffffffffffffff16610a8c826105a9565b73ffffffffffffffffffffffffffffffffffffffff161415610af9576040517f08c379a000000000000000000000000000000000000000000000000000000000815260040180806020018281038252602b815260200180613bf8602b913960400191505060405180910390fd5b610b048160006113ef565b50565b6000610b357fea7157fa25e3aa17d0ae2d5280fa4e24d421c61842aa85e45194e1145aa72bf860001b611459565b905090565b3073ffffffffffffffffffffffffffffffffffffffff163373ffffffffffffffffffffffffffffffffffffffff1614610bbe576040517f08c379a0000000000000000000000000000000000000000000000000000000008152600401808060200182810382526027815260200180613eb46027913960400191505060405180910390fd5b6000610bef82604051602001610bd491906137af565b60405160208183030381529060405280519060200120611347565b9050610bfb8183611464565b5050565b610c088261164b565b6000610c3b8385604051602001610c209291906137ff565b60405160208183030381529060405280519060200120611347565b9050610c478183611705565b610c86576040517f08c379a0000000000000000000000000000000000000000000000000000000008152600401610c7d9061378f565b60405180910390fd5b610c908185611464565b50505050565b606060008383905067ffffffffffffffff81118015610cb457600080fd5b50604051908082528060200260200182016040528015610cee57816020015b610cdb61297f565b815260200190600190039081610cd35790505b50905060005b84849050811015610fe5576000858583818110610d0d57fe5b9050602002810190610d1f9190613858565b610d2890613a42565b905080604001515a1015610d71576040517f08c379a0000000000000000000000000000000000000000000000000000000008152600401610d689061376f565b60405180910390fd5b6001838381518110610d7f57fe5b60200260200101516000019015159081151581525050806000015115610e8b5760005a9050816060015173ffffffffffffffffffffffffffffffffffffffff166000836040015114610dd5578260400151610dd7565b5a5b8360a00151604051610de9919061365a565b6000604051808303818686f4925050503d8060008114610e25576040519150601f19603f3d011682016040523d82523d6000602084013e610e2a565b606091505b50858581518110610e3757fe5b6020026020010151602001868681518110610e4e57fe5b6020026020010151604001829052821515151581525050505a8103848481518110610e7557fe5b6020026020010151606001818152505050610f7b565b60005a9050816060015173ffffffffffffffffffffffffffffffffffffffff1682608001516000846040015114610ec6578360400151610ec8565b5a5b908460a00151604051610edb919061365a565b600060405180830381858888f193505050503d8060008114610f19576040519150601f19603f3d011682016040523d82523d6000602084013e610f1e565b606091505b50858581518110610f2b57fe5b6020026020010151602001868681518110610f4257fe5b6020026020010151604001829052821515151581525050505a8103848481518110610f6957fe5b60200260200101516060018181525050505b828281518110610f8757fe5b602002602001015160200151158015610fcc5750858583818110610fa757fe5b9050602002810190610fb99190613858565b6020016020810190610fcb9190612fa1565b5b15610fd75750610fe5565b508080600101915050610cf4565b508091505092915050565b60006110227f8d0bf1fd623d628c741362c1289948e57b3e2905218c676d3e69abee36d6ae2e60001b8360001b61126c565b60001c9050919050565b60003073ffffffffffffffffffffffffffffffffffffffff163373ffffffffffffffffffffffffffffffffffffffff16146110b2576040517f08c379a0000000000000000000000000000000000000000000000000000000008152600401808060200182810382526027815260200180613eb46027913960400191505060405180910390fd5b81516020830134f090507fa506ad4e7f05eceba62a023c3219e5bd98a615f4fa87e2afb08a2da5cf62bf0c81604051808273ffffffffffffffffffffffffffffffffffffffff16815260200191505060405180910390a1919050565b600061111a6000610ff0565b905090565b3073ffffffffffffffffffffffffffffffffffffffff163373ffffffffffffffffffffffffffffffffffffffff16146111a3576040517f08c379a0000000000000000000000000000000000000000000000000000000008152600401808060200182810382526027815260200180613eb46027913960400191505060405180910390fd5b600073ffffffffffffffffffffffffffffffffffffffff166111c4836105a9565b73ffffffffffffffffffffffffffffffffffffffff1614611230576040517f08c379a000000000000000000000000000000000000000000000000000000000815260040180806020018281038252602c815260200180613d0c602c913960400191505060405180910390fd5b61123a82826113ef565b5050565b600063bc197c8160e01b905098975050505050505050565b600063f23a6e6160e01b90509695505050505050565b60008083836040516020018083815260200182815260200192505050604051602081830303815290604052805190602001209050805491505092915050565b60007f90042baf000000000000000000000000000000000000000000000000000000007bffffffffffffffffffffffffffffffffffffffffffffffffffffffff1916827bffffffffffffffffffffffffffffffffffffffffffffffffffffffff1916141561131c5760019050611328565b61132582611737565b90505b919050565b600080823b90506000811415915050919050565b80305550565b60008046905080308460405160200180807f19010000000000000000000000000000000000000000000000000000000000008152506002018481526020018373ffffffffffffffffffffffffffffffffffffffff1660601b8152601401828152602001935050505060405160208183030381529060405280519060200120915050919050565b6000806113da84846118f1565b505090508091505092915050565b8082555050565b6114557fbe27a319efc8734e89e26ba4bc95f5c788584163b959f03fa04e2d7ab4b9a12060001b837bffffffffffffffffffffffffffffffffffffffffffffffffffffffff19168373ffffffffffffffffffffffffffffffffffffffff1660001b611b67565b5050565b600081549050919050565b60005b815181101561164657600082828151811061147e57fe5b602002602001015190506000606082604001515a10156114d3576040517f08c379a00000000000000000000000000000000000000000000000000000000081526004016114ca9061374f565b60405180910390fd5b82600001511561157157826060015173ffffffffffffffffffffffffffffffffffffffff16600084604001511461150e578360400151611510565b5a5b8460a00151604051611522919061365a565b6000604051808303818686f4925050503d806000811461155e576040519150601f19603f3d011682016040523d82523d6000602084013e611563565b606091505b508092508193505050611609565b826060015173ffffffffffffffffffffffffffffffffffffffff16836080015160008560400151146115a75784604001516115a9565b5a5b908560a001516040516115bc919061365a565b600060405180830381858888f193505050503d80600081146115fa576040519150601f19603f3d011682016040523d82523d6000602084013e6115ff565b606091505b5080925081935050505b811561162a578560405161161d91906136c9565b60405180910390a0611636565b611635838783611ba3565b5b5050508080600101915050611467565b505050565b60008061165783611bf3565b91509150600061166683610ff0565b905080821480611674575060015b6116b3576040517f08c379a00000000000000000000000000000000000000000000000000000000081526004016116aa9061372f565b60405180910390fd5b60006001830190506116c58482611c18565b7f1f180c27086c7a39ea2a7b25239d1ab92348f07ca7bb59d1438fcf527568f88184826040516116f692919061382f565b60405180910390a15050505050565b60008060008061171586866118f1565b925092509250811561172b5761172a81611c50565b5b82935050505092915050565b60007fec6aba50000000000000000000000000000000000000000000000000000000007bffffffffffffffffffffffffffffffffffffffffffffffffffffffff1916827bffffffffffffffffffffffffffffffffffffffffffffffffffffffff1916148061180257507f4e2312e0000000000000000000000000000000000000000000000000000000007bffffffffffffffffffffffffffffffffffffffffffffffffffffffff1916827bffffffffffffffffffffffffffffffffffffffffffffffffffffffff1916145b8061186a57507f150b7a02000000000000000000000000000000000000000000000000000000007bffffffffffffffffffffffffffffffffffffffffffffffffffffffff1916827bffffffffffffffffffffffffffffffffffffffffffffffffffffffff1916145b806118d257507fc0ee0b8a000000000000000000000000000000000000000000000000000000007bffffffffffffffffffffffffffffffffffffffffffffffffffffffff1916827bffffffffffffffffffffffffffffffffffffffffffffffffffffffff1916145b156118e057600190506118ec565b6118e982611c53565b90505b919050565b600080600080600061190286611cd5565b9150915060008261ffff1660001b905060005b8751831015611b31576000806000611936868c611d4890919063ffffffff16565b8260ff1692508160ff16915080985081945082955050505060018314156119775761196a868c611dd490919063ffffffff16565b8097508192505050611ada565b60008314156119b4576060611995878d611e6b90919063ffffffff16565b80985081925050506119a78d82611f4f565b9150828501945050611ad9565b6002831415611a87576119d0868c611dd490919063ffffffff16565b809750819250505060006119ed878d61232190919063ffffffff16565b8161ffff16915080985081925050506060611a1388838f6123a69092919063ffffffff16565b8099508192505050611a268e84836124a9565b611a7b576040517f08c379a0000000000000000000000000000000000000000000000000000000008152600401808060200182810382526032815260200180613cda6032913960400191505060405180910390fd5b83860195505050611ad8565b6040517f08c379a000000000000000000000000000000000000000000000000000000000815260040180806020018281038252602c815260200180613b95602c913960400191505060405180910390fd5b5b5b848282604051602001808481526020018381526020018273ffffffffffffffffffffffffffffffffffffffff1681526020019350505050604051602081830303815290604052805190602001209450505050611915565b600080611b3d846126dc565b915091508561ffff168310158015611b525750815b81859850985098505050505050509250925092565b60008383604051602001808381526020018281526020019250505060405160208183030381529060405280519060200120905081815550505050565b826020015115611bb557805160208201fd5b7f3dbd1590ea96dd3253a91f24e64e3a502e1225d602a5731357bc12643070ccd78282604051611be69291906136e4565b60405180910390a1505050565b600080600160606001901b0360001b8360001b1660001c9050606083901c9150915091565b611c4c7f8d0bf1fd623d628c741362c1289948e57b3e2905218c676d3e69abee36d6ae2e60001b8360001b8360001b611b67565b5050565b50565b60007f025b22bc000000000000000000000000000000000000000000000000000000007bffffffffffffffffffffffffffffffffffffffffffffffffffffffff1916827bffffffffffffffffffffffffffffffffffffffffffffffffffffffff19161415611cc45760019050611cd0565b611ccd826126ec565b90505b919050565b60008082602001518060f01c92506002915050825160021115611d43576040517f08c379a0000000000000000000000000000000000000000000000000000000008152600401808060200182810382526027815260200180613c466027913960400191505060405180910390fd5b915091565b6000806000846020018401518060f81c935060ff8160f01c16925060028501915050838111611d7357fe5b8451811115611dcd576040517f08c379a0000000000000000000000000000000000000000000000000000000008152600401808060200182810382526026815260200180613e0f6026913960400191505060405180910390fd5b9250925092565b6000808360200183015173ffffffffffffffffffffffffffffffffffffffff8160601c16925060148401915050828111611e0a57fe5b8351811115611e64576040517f08c379a0000000000000000000000000000000000000000000000000000000008152600401808060200182810382526023815260200180613c236023913960400191505060405180910390fd5b9250929050565b60606000604267ffffffffffffffff81118015611e8757600080fd5b506040519080825280601f01601f191660200182016040528015611eba5781602001600182028036833780820191505090505b50915082840160200180516020840152602081015160408401526022810151604284015260428401915050828111611eee57fe5b8351811115611f48576040517f08c379a0000000000000000000000000000000000000000000000000000000008152600401808060200182810382526023815260200180613d776023913960400191505060405180910390fd5b9250929050565b60006042825114611fab576040517f08c379a000000000000000000000000000000000000000000000000000000000815260040180806020018281038252603a815260200180613b5b603a913960400191505060405180910390fd5b600082600184510381518110611fbd57fe5b602001015160f81c60f81b60f81c60ff169050600083604081518110611fdf57fe5b602001015160f81c60f81b60f81c9050600061200560008661276e90919063ffffffff16565b9050600061201d60208761276e90919063ffffffff16565b90507f7fffffffffffffffffffffffffffffff5d576e7357a4501ddfe92f46681b20a08160001c111561209b576040517f08c379a000000000000000000000000000000000000000000000000000000000815260040180806020018281038252603d815260200180613b1e603d913960400191505060405180910390fd5b601b8360ff16141580156120b35750601c8360ff1614155b15612109576040517f08c379a000000000000000000000000000000000000000000000000000000000815260040180806020018281038252603d815260200180613c6d603d913960400191505060405180910390fd5b600184141561217d5760018784848460405160008152602001604052604051808581526020018460ff1681526020018381526020018281526020019450505050506020604051602081039080840390855afa15801561216c573d6000803e3d6000fd5b505050602060405103519450612291565b600284141561223f5760018760405160200180807f19457468657265756d205369676e6564204d6573736167653a0a333200000000815250601c018281526020019150506040516020818303038152906040528051906020012084848460405160008152602001604052604051808581526020018460ff1681526020018381526020018281526020019450505050506020604051602081039080840390855afa15801561222e573d6000803e3d6000fd5b505050602060405103519450612290565b6040517f08c379a000000000000000000000000000000000000000000000000000000000815260040180806020018281038252603c815260200180613dd3603c913960400191505060405180910390fd5b5b600073ffffffffffffffffffffffffffffffffffffffff168573ffffffffffffffffffffffffffffffffffffffff161415612317576040517f08c379a0000000000000000000000000000000000000000000000000000000008152600401808060200182810382526030815260200180613caa6030913960400191505060405180910390fd5b5050505092915050565b6000808360200183015161ffff8160f01c1692506002840191505082811161234557fe5b835181111561239f576040517f08c379a0000000000000000000000000000000000000000000000000000000008152600401808060200182810382526022815260200180613e566022913960400191505060405180910390fd5b9250929050565b606060008267ffffffffffffffff811180156123c157600080fd5b506040519080825280601f01601f1916602001820160405280156123f45781602001600182028036833780820191505090505b509150838501602001600060205b85811015612420578183015181860152809150602081019050612402565b85602001850180518385015183880152808252878901955050505050508381101561244757fe5b84518111156124a1576040517f08c379a0000000000000000000000000000000000000000000000000000000008152600401808060200182810382526021815260200180613e356021913960400191505060405180910390fd5b935093915050565b600080826001845103815181106124bc57fe5b602001015160f81c60f81b60f81c60ff16905060018114806124de5750600281145b15612522578373ffffffffffffffffffffffffffffffffffffffff166125048685611f4f565b73ffffffffffffffffffffffffffffffffffffffff161491506126d4565b6003811415612682576000835190506001810384528473ffffffffffffffffffffffffffffffffffffffff16631626ba7e87866040518363ffffffff1660e01b81526004018083815260200180602001828103825283818151815260200191508051906020019080838360005b838110156125aa57808201518184015260208101905061258f565b50505050905090810190601f1680156125d75780820380516001836020036101000a031916815260200191505b50935050505060206040518083038186803b1580156125f557600080fd5b505afa158015612609573d6000803e3d6000fd5b505050506040513d602081101561261f57600080fd5b81019080805190602001909291905050507bffffffffffffffffffffffffffffffffffffffffffffffffffffffff1916631626ba7e60e01b7bffffffffffffffffffffffffffffffffffffffffffffffffffffffff1916149250808452506126d3565b6040517f08c379a000000000000000000000000000000000000000000000000000000000815260040180806020018281038252603f815260200180613d38603f913960400191505060405180910390fd5b5b509392505050565b6000806001600091509150915091565b60007f389901c7000000000000000000000000000000000000000000000000000000007bffffffffffffffffffffffffffffffffffffffffffffffffffffffff1916827bffffffffffffffffffffffffffffffffffffffffffffffffffffffff1916141561275d5760019050612769565b612766826127e2565b90505b919050565b600060208201835110156127cd576040517f08c379a000000000000000000000000000000000000000000000000000000000815260040180806020018281038252603c815260200180613e78603c913960400191505060405180910390fd5b60006020830190508084015191505092915050565b60007f783649a6000000000000000000000000000000000000000000000000000000007bffffffffffffffffffffffffffffffffffffffffffffffffffffffff1916827bffffffffffffffffffffffffffffffffffffffffffffffffffffffff19161415612853576001905061285f565b61285c82612864565b90505b919050565b6000807bffffffffffffffffffffffffffffffffffffffffffffffffffffffff1916827bffffffffffffffffffffffffffffffffffffffffffffffffffffffff1916148061290f57507f36e78175000000000000000000000000000000000000000000000000000000007bffffffffffffffffffffffffffffffffffffffffffffffffffffffff1916827bffffffffffffffffffffffffffffffffffffffffffffffffffffffff1916145b1561291d5760019050612929565b6129268261292e565b90505b919050565b60006301ffc9a760e01b7bffffffffffffffffffffffffffffffffffffffffffffffffffffffff1916827bffffffffffffffffffffffffffffffffffffffffffffffffffffffff1916149050919050565b604051806080016040528060001515815260200160001515815260200160608152602001600081525090565b60006129be6129b9846138ad565b61387c565b9050808382526020820190508260005b858110156129fe57813585016129e48882612bcc565b8452602084019350602083019250506001810190506129ce565b5050509392505050565b6000612a1b612a16846138d9565b61387c565b905082815260208101848484011115612a3357600080fd5b612a3e848285613a55565b509392505050565b600081359050612a5581613aaa565b92915050565b60008083601f840112612a6d57600080fd5b8235905067ffffffffffffffff811115612a8657600080fd5b602083019150836020820283011115612a9e57600080fd5b9250929050565b600082601f830112612ab657600080fd5b8135612ac68482602086016129ab565b91505092915050565b60008083601f840112612ae157600080fd5b8235905067ffffffffffffffff811115612afa57600080fd5b602083019150836020820283011115612b1257600080fd5b9250929050565b600081359050612b2881613ac1565b92915050565b600081359050612b3d81613ad8565b92915050565b600081359050612b5281613aef565b92915050565b60008083601f840112612b6a57600080fd5b8235905067ffffffffffffffff811115612b8357600080fd5b602083019150836001820283011115612b9b57600080fd5b9250929050565b600082601f830112612bb357600080fd5b8135612bc3848260208601612a08565b91505092915050565b600060c08284031215612bde57600080fd5b612be860c061387c565b90506000612bf884828501612b19565b6000830152506020612c0c84828501612b19565b6020830152506040612c2084828501612c80565b6040830152506060612c3484828501612a46565b6060830152506080612c4884828501612c80565b60808301525060a082013567ffffffffffffffff811115612c6857600080fd5b612c7484828501612ba2565b60a08301525092915050565b600081359050612c8f81613b06565b92915050565b600060208284031215612ca757600080fd5b6000612cb584828501612a46565b91505092915050565b60008060008060008060008060a0898b031215612cda57600080fd5b6000612ce88b828c01612a46565b9850506020612cf98b828c01612a46565b975050604089013567ffffffffffffffff811115612d1657600080fd5b612d228b828c01612acf565b9650965050606089013567ffffffffffffffff811115612d4157600080fd5b612d4d8b828c01612acf565b9450945050608089013567ffffffffffffffff811115612d6c57600080fd5b612d788b828c01612b58565b92509250509295985092959890939650565b600080600080600060808688031215612da257600080fd5b6000612db088828901612a46565b9550506020612dc188828901612a46565b9450506040612dd288828901612c80565b935050606086013567ffffffffffffffff811115612def57600080fd5b612dfb88828901612b58565b92509250509295509295909350565b60008060008060008060a08789031215612e2357600080fd5b6000612e3189828a01612a46565b9650506020612e4289828a01612a46565b9550506040612e5389828a01612c80565b9450506060612e6489828a01612c80565b935050608087013567ffffffffffffffff811115612e8157600080fd5b612e8d89828a01612b58565b92509250509295509295509295565b60008060208385031215612eaf57600080fd5b600083013567ffffffffffffffff811115612ec957600080fd5b612ed585828601612a5b565b92509250509250929050565b600060208284031215612ef357600080fd5b600082013567ffffffffffffffff811115612f0d57600080fd5b612f1984828501612aa5565b91505092915050565b600080600060608486031215612f3757600080fd5b600084013567ffffffffffffffff811115612f5157600080fd5b612f5d86828701612aa5565b9350506020612f6e86828701612c80565b925050604084013567ffffffffffffffff811115612f8b57600080fd5b612f9786828701612ba2565b9150509250925092565b600060208284031215612fb357600080fd5b6000612fc184828501612b19565b91505092915050565b600060208284031215612fdc57600080fd5b6000612fea84828501612b2e565b91505092915050565b60008060006040848603121561300857600080fd5b600061301686828701612b2e565b935050602084013567ffffffffffffffff81111561303357600080fd5b61303f86828701612b58565b92509250509250925092565b60006020828403121561305d57600080fd5b600061306b84828501612b43565b91505092915050565b6000806040838503121561308757600080fd5b600061309585828601612b43565b92505060206130a685828601612a46565b9150509250929050565b600080600080604085870312156130c657600080fd5b600085013567ffffffffffffffff8111156130e057600080fd5b6130ec87828801612b58565b9450945050602085013567ffffffffffffffff81111561310b57600080fd5b61311787828801612b58565b925092505092959194509250565b60006020828403121561313757600080fd5b600082013567ffffffffffffffff81111561315157600080fd5b61315d84828501612ba2565b91505092915050565b60006020828403121561317857600080fd5b600061318684828501612c80565b91505092915050565b600061319b8383613550565b905092915050565b60006131af83836135b3565b905092915050565b6131c0816139c4565b82525050565b6131cf816139c4565b82525050565b60006131e082613929565b6131ea8185613964565b9350836020820285016131fc85613909565b8060005b858110156132385784840389528151613219858261318f565b94506132248361394a565b925060208a01995050600181019050613200565b50829750879550505050505092915050565b600061325582613934565b61325f8185613975565b93508360208202850161327185613919565b8060005b858110156132ad578484038952815161328e85826131a3565b945061329983613957565b925060208a01995050600181019050613275565b50829750879550505050505092915050565b6132c8816139d6565b82525050565b6132d7816139d6565b82525050565b6132e6816139e2565b82525050565b6132f5816139ec565b82525050565b60006133068261393f565b6133108185613986565b9350613320818560208601613a64565b61332981613a99565b840191505092915050565b600061333f8261393f565b6133498185613997565b9350613359818560208601613a64565b61336281613a99565b840191505092915050565b60006133788261393f565b61338281856139a8565b9350613392818560208601613a64565b80840191505092915050565b60006133ab601f836139b3565b91507f4d61696e4d6f64756c65235f617574683a20494e56414c49445f4e4f4e4345006000830152602082019050919050565b60006133eb6024836139b3565b91507f4d6f64756c6543616c6c73235f657865637574653a204e4f545f454e4f55474860008301527f5f474153000000000000000000000000000000000000000000000000000000006020830152604082019050919050565b60006134516037836139b3565b91507f4d61696e4d6f64756c65476173457374696d6174696f6e2373696d756c61746560008301527f457865637574653a204e4f545f454e4f5547485f4741530000000000000000006020830152604082019050919050565b60006134b76026836139b3565b91507f4d6f64756c6543616c6c7323657865637574653a20494e56414c49445f53494760008301527f4e415455524500000000000000000000000000000000000000000000000000006020830152604082019050919050565b600061351d6005836139b3565b91507f73656c663a0000000000000000000000000000000000000000000000000000006000830152602082019050919050565b600060808301600083015161356860008601826132bf565b50602083015161357b60208601826132bf565b506040830151848203604086015261359382826132fb565b91505060608301516135a8606086018261363c565b508091505092915050565b600060c0830160008301516135cb60008601826132bf565b5060208301516135de60208601826132bf565b5060408301516135f1604086018261363c565b50606083015161360460608601826131b7565b506080830151613617608086018261363c565b5060a083015184820360a086015261362f82826132fb565b9150508091505092915050565b61364581613a38565b82525050565b61365481613a38565b82525050565b6000613666828461336d565b915081905092915050565b600060208201905061368660008301846131c6565b92915050565b600060208201905081810360008301526136a681846131d5565b905092915050565b60006020820190506136c360008301846132ce565b92915050565b60006020820190506136de60008301846132dd565b92915050565b60006040820190506136f960008301856132dd565b818103602083015261370b8184613334565b90509392505050565b600060208201905061372960008301846132ec565b92915050565b600060208201905081810360008301526137488161339e565b9050919050565b60006020820190508181036000830152613768816133de565b9050919050565b6000602082019050818103600083015261378881613444565b9050919050565b600060208201905081810360008301526137a8816134aa565b9050919050565b600060408201905081810360008301526137c881613510565b905081810360208301526137dc818461324a565b905092915050565b60006020820190506137f9600083018461364b565b92915050565b6000604082019050613814600083018561364b565b8181036020830152613826818461324a565b90509392505050565b6000604082019050613844600083018561364b565b613851602083018461364b565b9392505050565b60008235600160c00383360303811261387057600080fd5b80830191505092915050565b6000604051905081810181811067ffffffffffffffff821117156138a3576138a2613a97565b5b8060405250919050565b600067ffffffffffffffff8211156138c8576138c7613a97565b5b602082029050602081019050919050565b600067ffffffffffffffff8211156138f4576138f3613a97565b5b601f19601f8301169050602081019050919050565b6000819050602082019050919050565b6000819050602082019050919050565b600081519050919050565b600081519050919050565b600081519050919050565b6000602082019050919050565b6000602082019050919050565b600082825260208201905092915050565b600082825260208201905092915050565b600082825260208201905092915050565b600082825260208201905092915050565b600081905092915050565b600082825260208201905092915050565b60006139cf82613a18565b9050919050565b60008115159050919050565b6000819050919050565b60007fffffffff0000000000000000000000000000000000000000000000000000000082169050919050565b600073ffffffffffffffffffffffffffffffffffffffff82169050919050565b6000819050919050565b6000613a4e3683612bcc565b9050919050565b82818337600083830152505050565b60005b83811015613a82578082015181840152602081019050613a67565b83811115613a91576000848401525b50505050565bfe5b6000601f19601f8301169050919050565b613ab3816139c4565b8114613abe57600080fd5b50565b613aca816139d6565b8114613ad557600080fd5b50565b613ae1816139e2565b8114613aec57600080fd5b50565b613af8816139ec565b8114613b0357600080fd5b50565b613b0f81613a38565b8114613b1a57600080fd5b5056fe5369676e617475726556616c696461746f72237265636f7665725369676e65723a20696e76616c6964207369676e6174757265202773272076616c75655369676e617475726556616c696461746f72237265636f7665725369676e65723a20696e76616c6964207369676e6174757265206c656e6774684d6f64756c6541757468235f7369676e617475726556616c69646174696f6e20494e56414c49445f464c41474d6f64756c654175746855706772616461626c6523757064617465496d6167654861736820494e56414c49445f494d4147455f484153484d6f64756c65486f6f6b732372656d6f7665486f6f6b3a20484f4f4b5f4e4f545f524547495354455245444c696242797465732372656164416464726573733a204f55545f4f465f424f554e44534c696242797465732372656164466972737455696e7431363a204f55545f4f465f424f554e44535369676e617475726556616c696461746f72237265636f7665725369676e65723a20696e76616c6964207369676e6174757265202776272076616c75655369676e617475726556616c696461746f72237265636f7665725369676e65723a20494e56414c49445f5349474e45524d6f64756c6541757468235f7369676e617475726556616c69646174696f6e3a20494e56414c49445f5349474e41545552454d6f64756c65486f6f6b7323616464486f6f6b3a20484f4f4b5f414c52454144595f524547495354455245445369676e617475726556616c696461746f7223697356616c69645369676e61747572653a20554e535550504f525445445f5349474e41545552455f545950454c696242797465732372656164427974657336363a204f55545f4f465f424f554e44534d6f64756c6555706461746523757064617465496d706c656d656e746174696f6e3a20494e56414c49445f494d504c454d454e544154494f4e5369676e617475726556616c696461746f72237265636f7665725369676e65723a20554e535550504f525445445f5349474e41545552455f545950454c69624279746573237265616455696e743855696e74383a204f55545f4f465f424f554e44534c69624279746573237265616442797465733a204f55545f4f465f424f554e44534c69624279746573237265616455696e7431363a204f55545f4f465f424f554e44534c696242797465732372656164427974657333323a20475245415445525f4f525f455155414c5f544f5f33325f4c454e4754485f52455155495245444d6f64756c6553656c6641757468236f6e6c7953656c663a204e4f545f415554484f52495a4544a2646970667358221220e9b863470799ae42a563578c533084d32bff04e4e0ca440fd32e92801db9043764736f6c63430007060033",
  "linkReferences": {},
  "deployedLinkReferences": {}
}