{
  "_format": "hh-sol-artifact-1",
  "contractName": "HookMock",
  "sourceName": "contracts/mocks/HookMock.sol",
  "abi": [
    {
      "inputs": [
        {
          "internalType": "uint256",
          "name": "_num",
          "type": "uint256"
        }
      ],
      "name": "onHookMockCall",
      "outputs": [
        {
          "internalType": "uint256",
          "name": "",
          "type": "uint256"
        }
      ],
      "stateMutability": "pure",
      "type": "function"
    }
  ],
  "bytecode": "0x6080604052348015600f57600080fd5b5060af8061001e6000396000f3fe6080604052348015600f57600080fd5b506004361060285760003560e01c8063b68fe6cf14602d575b600080fd5b605660048036036020811015604157600080fd5b8101908080359060200190929190505050606c565b6040518082815260200191505060405180910390f35b600060028202905091905056fea264697066735822122072e21121382e1acb76573b1e8d5af223fcaf563f0bbb9962a8b60337cbb7f3b164736f6c63430007060033",
  "linkReferences": {},
  "deployedLinkReferences": {}
}