{
  "_format": "hh-sol-artifact-1",
  "contractName": "RequireFreshSigner",
  "sourceName": "contracts/modules/utils/libs/RequireFreshSigner.sol",
  "abi": [
    {
      "inputs": [
        {
          "internalType": "contract RequireUtils",
          "name": "_requireUtils",
          "type": "address"
        }
      ],
      "stateMutability": "nonpayable",
      "type": "constructor"
    },
    {
      "inputs": [],
      "name": "REQUIRE_UTILS",
      "outputs": [
        {
          "internalType": "contract RequireUtils",
          "name": "",
          "type": "address"
        }
      ],
      "stateMutability": "view",
      "type": "function"
    },
    {
      "inputs": [
        {
          "internalType": "address",
          "name": "_signer",
          "type": "address"
        }
      ],
      "name": "requireFreshSigner",
      "outputs": [],
      "stateMutability": "nonpayable",
      "type": "function"
    }
  ],
  "bytecode": "0x60a060405234801561001057600080fd5b506040516102ff3803806102ff8339818101604052602081101561003357600080fd5b81019080805190602001909291905050508073ffffffffffffffffffffffffffffffffffffffff1660808173ffffffffffffffffffffffffffffffffffffffff1660601b815250505060805160601c61026261009d6000398060b752806101d252506102626000f3fe608060405234801561001057600080fd5b50600436106100365760003560e01c80630df0c4191461003b578063cfc63a491461007f575b600080fd5b61007d6004803603602081101561005157600080fd5b81019080803573ffffffffffffffffffffffffffffffffffffffff1690602001909291905050506100b3565b005b6100876101d0565b604051808273ffffffffffffffffffffffffffffffffffffffff16815260200191505060405180910390f35b60007f000000000000000000000000000000000000000000000000000000000000000073ffffffffffffffffffffffffffffffffffffffff16631cd05dc4836040518263ffffffff1660e01b8152600401808273ffffffffffffffffffffffffffffffffffffffff16815260200191505060206040518083038186803b15801561013c57600080fd5b505afa158015610150573d6000803e3d6000fd5b505050506040513d602081101561016657600080fd5b8101908080519060200190929190505050146101cd576040517f08c379a00000000000000000000000000000000000000000000000000000000081526004018080602001828103825260388152602001806101f56038913960400191505060405180910390fd5b50565b7f00000000000000000000000000000000000000000000000000000000000000008156fe5265717569726546726573685369676e6572237265717569726546726573685369676e65723a204455504c4943415445445f5349474e4552a264697066735822122042ea4a6670b6423fb5d66dfd1cfb03a9f46d742e2d74381219cb6d0dbe9065f564736f6c63430007060033",
  "linkReferences": {},
  "deployedLinkReferences": {}
}