{
  "_format": "hh-sol-artifact-1",
  "contractName": "GasBurnerMock",
  "sourceName": "contracts/mocks/GasBurnerMock.sol",
  "abi": [
    {
      "anonymous": false,
      "inputs": [
        {
          "indexed": false,
          "internalType": "uint256",
          "name": "_val",
          "type": "uint256"
        }
      ],
      "name": "ProvidedGas",
      "type": "event"
    },
    {
      "inputs": [
        {
          "internalType": "uint256",
          "name": "_burn",
          "type": "uint256"
        }
      ],
      "name": "burnGas",
      "outputs": [],
      "stateMutability": "nonpayable",
      "type": "function"
    }
  ],
  "bytecode": "0x608060405234801561001057600080fd5b50610107806100206000396000f3fe6080604052348015600f57600080fd5b506004361060285760003560e01c80634ad5d16f14602d575b600080fd5b605660048036036020811015604157600080fd5b81019080803590602001909291905050506058565b005b7fb5769a7bae701ca7bcd4ed2e803959a466a236728fcb0dc25fa836e3a38bc2225a6040518082815260200191505060405180910390a16000805a90505b825a8203101560cc5781604051602001808281526020019150506040516020818303038152906040528051906020012091506096565b50505056fea264697066735822122014f287f61da59a1501b6ff25834b5ba7e7ba5015f7e540e3acb77c108281945a64736f6c63430007060033",
  "linkReferences": {},
  "deployedLinkReferences": {}
}