{
  "_format": "hh-sol-artifact-1",
  "contractName": "RequireUtils",
  "sourceName": "contracts/modules/utils/RequireUtils.sol",
  "abi": [
    {
      "inputs": [
        {
          "internalType": "address",
          "name": "_factory",
          "type": "address"
        },
        {
          "internalType": "address",
          "name": "_mainModule",
          "type": "address"
        }
      ],
      "stateMutability": "nonpayable",
      "type": "constructor"
    },
    {
      "anonymous": false,
      "inputs": [
        {
          "indexed": true,
          "internalType": "address",
          "name": "_wallet",
          "type": "address"
        },
        {
          "indexed": true,
          "internalType": "bytes32",
          "name": "_imageHash",
          "type": "bytes32"
        },
        {
          "indexed": false,
          "internalType": "uint256",
          "name": "_threshold",
          "type": "uint256"
        },
        {
          "indexed": false,
          "internalType": "bytes",
          "name": "_signers",
          "type": "bytes"
        }
      ],
      "name": "RequiredConfig",
      "type": "event"
    },
    {
      "anonymous": false,
      "inputs": [
        {
          "indexed": true,
          "internalType": "address",
          "name": "_wallet",
          "type": "address"
        },
        {
          "indexed": true,
          "internalType": "address",
          "name": "_signer",
          "type": "address"
        }
      ],
      "name": "RequiredSigner",
      "type": "event"
    },
    {
      "inputs": [
        {
          "internalType": "address",
          "name": "",
          "type": "address"
        }
      ],
      "name": "knownImageHashes",
      "outputs": [
        {
          "internalType": "bytes32",
          "name": "",
          "type": "bytes32"
        }
      ],
      "stateMutability": "view",
      "type": "function"
    },
    {
      "inputs": [
        {
          "internalType": "bytes32",
          "name": "",
          "type": "bytes32"
        }
      ],
      "name": "lastImageHashUpdate",
      "outputs": [
        {
          "internalType": "uint256",
          "name": "",
          "type": "uint256"
        }
      ],
      "stateMutability": "view",
      "type": "function"
    },
    {
      "inputs": [
        {
          "internalType": "address",
          "name": "",
          "type": "address"
        }
      ],
      "name": "lastSignerUpdate",
      "outputs": [
        {
          "internalType": "uint256",
          "name": "",
          "type": "uint256"
        }
      ],
      "stateMutability": "view",
      "type": "function"
    },
    {
      "inputs": [
        {
          "internalType": "address",
          "name": "",
          "type": "address"
        }
      ],
      "name": "lastWalletUpdate",
      "outputs": [
        {
          "internalType": "uint256",
          "name": "",
          "type": "uint256"
        }
      ],
      "stateMutability": "view",
      "type": "function"
    },
    {
      "inputs": [
        {
          "internalType": "address",
          "name": "_wallet",
          "type": "address"
        },
        {
          "internalType": "uint256",
          "name": "_threshold",
          "type": "uint256"
        },
        {
          "components": [
            {
              "internalType": "uint256",
              "name": "weight",
              "type": "uint256"
            },
            {
              "internalType": "address",
              "name": "signer",
              "type": "address"
            }
          ],
          "internalType": "struct RequireUtils.Member[]",
          "name": "_members",
          "type": "tuple[]"
        },
        {
          "internalType": "bool",
          "name": "_index",
          "type": "bool"
        }
      ],
      "name": "publishConfig",
      "outputs": [],
      "stateMutability": "nonpayable",
      "type": "function"
    },
    {
      "inputs": [
        {
          "internalType": "address",
          "name": "_wallet",
          "type": "address"
        },
        {
          "internalType": "bytes32",
          "name": "_hash",
          "type": "bytes32"
        },
        {
          "internalType": "uint256",
          "name": "_sizeMembers",
          "type": "uint256"
        },
        {
          "internalType": "bytes",
          "name": "_signature",
          "type": "bytes"
        },
        {
          "internalType": "bool",
          "name": "_index",
          "type": "bool"
        }
      ],
      "name": "publishInitialSigners",
      "outputs": [],
      "stateMutability": "nonpayable",
      "type": "function"
    },
    {
      "inputs": [
        {
          "internalType": "address",
          "name": "_wallet",
          "type": "address"
        },
        {
          "internalType": "uint256",
          "name": "_nonce",
          "type": "uint256"
        }
      ],
      "name": "requireMinNonce",
      "outputs": [],
      "stateMutability": "view",
      "type": "function"
    },
    {
      "inputs": [
        {
          "internalType": "uint256",
          "name": "_expiration",
          "type": "uint256"
        }
      ],
      "name": "requireNonExpired",
      "outputs": [],
      "stateMutability": "view",
      "type": "function"
    }
  ],
  "bytecode": "0x60c06040523480156200001157600080fd5b5060405162002e9238038062002e928339818101604052810190620000379190620000f1565b8173ffffffffffffffffffffffffffffffffffffffff1660a08173ffffffffffffffffffffffffffffffffffffffff1660601b81525050604051806102c0016040528061029f815260200162002bf361029f91398173ffffffffffffffffffffffffffffffffffffffff16604051602001620000b592919062000184565b604051602081830303815290604052805190602001206080818152505050506200025e565b600081519050620000eb8162000244565b92915050565b600080604083850312156200010557600080fd5b60006200011585828601620000da565b92505060206200012885828601620000da565b9150509250929050565b60006200013f82620001b0565b6200014b8185620001bb565b93506200015d81856020860162000204565b80840191505092915050565b6200017e6200017882620001fa565b6200023a565b82525050565b600062000192828562000132565b9150620001a0828462000169565b6020820191508190509392505050565b600081519050919050565b600081905092915050565b6000620001d382620001da565b9050919050565b600073ffffffffffffffffffffffffffffffffffffffff82169050919050565b6000819050919050565b60005b838110156200022457808201518184015260208101905062000207565b8381111562000234576000848401525b50505050565b6000819050919050565b6200024f81620001c6565b81146200025b57600080fd5b50565b60805160a05160601c6129646200028f6000398061039c52806108b75250806103be52806108d952506129646000f3fe608060405234801561001057600080fd5b50600436106100885760003560e01c80637ae996381161005b5780637ae99638146101255780637f29d53814610155578063b472f0a214610171578063e717aba91461018d57610088565b80631551f0ab1461008d5780631cd05dc4146100bd57806344d466c2146100ed5780637082503b14610109575b600080fd5b6100a760048036038101906100a29190611a17565b6101bd565b6040516100b49190612371565b60405180910390f35b6100d760048036038101906100d291906118a3565b6101d5565b6040516100e49190612371565b60405180910390f35b61010760048036038101906101029190611997565b6101ed565b005b610123600480360381019061011e91906118cc565b61058a565b005b61013f600480360381019061013a91906118a3565b610a9e565b60405161014c91906121ef565b60405180910390f35b61016f600480360381019061016a9190611a69565b610ab6565b005b61018b6004803603810190610186919061195b565b610afb565b005b6101a760048036038101906101a291906118a3565b610be2565b6040516101b49190612371565b60405180910390f35b60036020528060005260406000206000915090505481565b60006020528060005260406000206000915090505481565b60008460001b905060005b84849050811015610275578185858381811061021057fe5b9050604002016000013586868481811061022657fe5b905060400201602001602081019061023e91906118a3565b6040516020016102509392919061220a565b60405160208183030381529060405280519060200120915080806001019150506101f8565b506000808773ffffffffffffffffffffffffffffffffffffffff166351605d8060e01b6040516020016102a8919061212f565b6040516020818303038152906040526040516102c4919061214a565b6000604051808303816000865af19150503d8060008114610301576040519150601f19603f3d011682016040523d82523d6000602084013e610306565b606091505b5091509150818015610319575060208151145b1561037e576000818060200190518101906103349190611a40565b9050838114610378576040517f08c379a000000000000000000000000000000000000000000000000000000000815260040161036f90612301565b60405180910390fd5b506104ab565b8773ffffffffffffffffffffffffffffffffffffffff1660ff60f81b7f0000000000000000000000000000000000000000000000000000000000000000857f00000000000000000000000000000000000000000000000000000000000000006040516020016103f094939291906120e1565b6040516020818303038152906040528051906020012060001c73ffffffffffffffffffffffffffffffffffffffff161461045f576040517f08c379a000000000000000000000000000000000000000000000000000000000815260040161045690612321565b60405180910390fd5b83156104aa5782600260008a73ffffffffffffffffffffffffffffffffffffffff1673ffffffffffffffffffffffffffffffffffffffff168152602001908152602001600020819055505b5b828873ffffffffffffffffffffffffffffffffffffffff167fb502b7446ca079086188acf3abef47c2f464f2ee9a72fcdf05ffcb74dcc17cee8989896040516020016104f89291906121a9565b60405160208183030381529060405260405161051592919061238c565b60405180910390a383156105805743600160008a73ffffffffffffffffffffffffffffffffffffffff1673ffffffffffffffffffffffffffffffffffffffff168152602001908152602001600020819055504360036000858152602001908152602001600020819055505b5050505050505050565b60008061059684610bfa565b915091506000804690508089896040516020016105b593929190612161565b6040516020818303038152906040528051906020012091505060008361ffff1660001b905060008767ffffffffffffffff811180156105f357600080fd5b5060405190808252806020026020018201604052801561062d57816020015b61061a611743565b8152602001906001900390816106125790505b50905060005b8751851015610857576000806000610654888c610c6d90919063ffffffff16565b8260ff1692508160ff169150809a50819450829550505050600183141561069557610688888c610cf990919063ffffffff16565b80995081925050506107d8565b60008314156106d85760606106b3898d610d9090919063ffffffff16565b809a5081925050506106c58882610e74565b91506106d28f838d611246565b506107d7565b600283141561079b576106f4888c610cf990919063ffffffff16565b80995081925050506000610711898d6112ef90919063ffffffff16565b8161ffff169150809a50819250505060606107378a838f6113749092919063ffffffff16565b809b50819250505061074a898483611477565b610789576040517f08c379a0000000000000000000000000000000000000000000000000000000008152600401610780906122c1565b60405180910390fd5b50506107968e828c611246565b6107d6565b6040517f08c379a00000000000000000000000000000000000000000000000000000000081526004016107cd90612241565b60405180910390fd5b5b5b60405180604001604052808381526020018273ffffffffffffffffffffffffffffffffffffffff1681525085858151811061080f57fe5b602002602001018190525083806001019450508582826040516020016108379392919061220a565b604051602081830303815290604052805190602001209550505050610633565b888114610899576040517f08c379a0000000000000000000000000000000000000000000000000000000008152600401610890906122e1565b60405180910390fd5b8a73ffffffffffffffffffffffffffffffffffffffff1660ff60f81b7f0000000000000000000000000000000000000000000000000000000000000000857f000000000000000000000000000000000000000000000000000000000000000060405160200161090b94939291906120e1565b6040516020818303038152906040528051906020012060001c73ffffffffffffffffffffffffffffffffffffffff161461097a576040517f08c379a0000000000000000000000000000000000000000000000000000000008152600401610971906122a1565b60405180910390fd5b828b73ffffffffffffffffffffffffffffffffffffffff167fb502b7446ca079086188acf3abef47c2f464f2ee9a72fcdf05ffcb74dcc17cee88856040516020016109c591906121cd565b6040516020818303038152906040526040516109e2929190612341565b60405180910390a38615610a915743600160008d73ffffffffffffffffffffffffffffffffffffffff1673ffffffffffffffffffffffffffffffffffffffff1681526020019081526020016000208190555043600360008581526020019081526020016000208190555082600260008d73ffffffffffffffffffffffffffffffffffffffff1673ffffffffffffffffffffffffffffffffffffffff168152602001908152602001600020819055505b5050505050505050505050565b60026020528060005260406000206000915090505481565b804210610af8576040517f08c379a0000000000000000000000000000000000000000000000000000000008152600401610aef90612281565b60405180910390fd5b50565b600080610b07836116aa565b9150915060008473ffffffffffffffffffffffffffffffffffffffff16638c3f5563846040518263ffffffff1660e01b8152600401610b469190612371565b60206040518083038186803b158015610b5e57600080fd5b505afa158015610b72573d6000803e3d6000fd5b505050506040513d601f19601f82011682018060405250810190610b969190611a92565b905081811015610bdb576040517f08c379a0000000000000000000000000000000000000000000000000000000008152600401610bd290612261565b60405180910390fd5b5050505050565b60016020528060005260406000206000915090505481565b60008082602001518060f01c92506002915050825160021115610c68576040517f08c379a00000000000000000000000000000000000000000000000000000000081526004018080602001828103825260278152602001806127586027913960400191505060405180910390fd5b915091565b6000806000846020018401518060f81c935060ff8160f01c16925060028501915050838111610c9857fe5b8451811115610cf2576040517f08c379a000000000000000000000000000000000000000000000000000000000815260040180806020018281038252602681526020018061288a6026913960400191505060405180910390fd5b9250925092565b6000808360200183015173ffffffffffffffffffffffffffffffffffffffff8160601c16925060148401915050828111610d2f57fe5b8351811115610d89576040517f08c379a00000000000000000000000000000000000000000000000000000000081526004018080602001828103825260238152602001806127356023913960400191505060405180910390fd5b9250929050565b60606000604267ffffffffffffffff81118015610dac57600080fd5b506040519080825280601f01601f191660200182016040528015610ddf5781602001600182028036833780820191505090505b50915082840160200180516020840152602081015160408401526022810151604284015260428401915050828111610e1357fe5b8351811115610e6d576040517f08c379a000000000000000000000000000000000000000000000000000000000815260040180806020018281038252602381526020018061282b6023913960400191505060405180910390fd5b9250929050565b60006042825114610ed0576040517f08c379a000000000000000000000000000000000000000000000000000000000815260040180806020018281038252603a8152602001806126fb603a913960400191505060405180910390fd5b600082600184510381518110610ee257fe5b602001015160f81c60f81b60f81c60ff169050600083604081518110610f0457fe5b602001015160f81c60f81b60f81c90506000610f2a6000866116cf90919063ffffffff16565b90506000610f426020876116cf90919063ffffffff16565b90507f7fffffffffffffffffffffffffffffff5d576e7357a4501ddfe92f46681b20a08160001c1115610fc0576040517f08c379a000000000000000000000000000000000000000000000000000000000815260040180806020018281038252603d8152602001806126be603d913960400191505060405180910390fd5b601b8360ff1614158015610fd85750601c8360ff1614155b1561102e576040517f08c379a000000000000000000000000000000000000000000000000000000000815260040180806020018281038252603d81526020018061277f603d913960400191505060405180910390fd5b60018414156110a25760018784848460405160008152602001604052604051808581526020018460ff1681526020018381526020018281526020019450505050506020604051602081039080840390855afa158015611091573d6000803e3d6000fd5b5050506020604051035194506111b6565b60028414156111645760018760405160200180807f19457468657265756d205369676e6564204d6573736167653a0a333200000000815250601c018281526020019150506040516020818303038152906040528051906020012084848460405160008152602001604052604051808581526020018460ff1681526020018381526020018281526020019450505050506020604051602081039080840390855afa158015611153573d6000803e3d6000fd5b5050506020604051035194506111b5565b6040517f08c379a000000000000000000000000000000000000000000000000000000000815260040180806020018281038252603c81526020018061284e603c913960400191505060405180910390fd5b5b600073ffffffffffffffffffffffffffffffffffffffff168573ffffffffffffffffffffffffffffffffffffffff16141561123c576040517f08c379a00000000000000000000000000000000000000000000000000000000081526004018080602001828103825260308152602001806127bc6030913960400191505060405180910390fd5b5050505092915050565b8173ffffffffffffffffffffffffffffffffffffffff168373ffffffffffffffffffffffffffffffffffffffff167f600ba597427f042bcd559a0d06fa1732cc104d6dd43cbe8845b5a0e804b2b39f60405160405180910390a380156112ea57436000808473ffffffffffffffffffffffffffffffffffffffff1673ffffffffffffffffffffffffffffffffffffffff168152602001908152602001600020819055505b505050565b6000808360200183015161ffff8160f01c1692506002840191505082811161131357fe5b835181111561136d576040517f08c379a00000000000000000000000000000000000000000000000000000000081526004018080602001828103825260228152602001806128d16022913960400191505060405180910390fd5b9250929050565b606060008267ffffffffffffffff8111801561138f57600080fd5b506040519080825280601f01601f1916602001820160405280156113c25781602001600182028036833780820191505090505b509150838501602001600060205b858110156113ee5781830151818601528091506020810190506113d0565b85602001850180518385015183880152808252878901955050505050508381101561141557fe5b845181111561146f576040517f08c379a00000000000000000000000000000000000000000000000000000000081526004018080602001828103825260218152602001806128b06021913960400191505060405180910390fd5b935093915050565b6000808260018451038151811061148a57fe5b602001015160f81c60f81b60f81c60ff16905060018114806114ac5750600281145b156114f0578373ffffffffffffffffffffffffffffffffffffffff166114d28685610e74565b73ffffffffffffffffffffffffffffffffffffffff161491506116a2565b6003811415611650576000835190506001810384528473ffffffffffffffffffffffffffffffffffffffff16631626ba7e87866040518363ffffffff1660e01b81526004018083815260200180602001828103825283818151815260200191508051906020019080838360005b8381101561157857808201518184015260208101905061155d565b50505050905090810190601f1680156115a55780820380516001836020036101000a031916815260200191505b50935050505060206040518083038186803b1580156115c357600080fd5b505afa1580156115d7573d6000803e3d6000fd5b505050506040513d60208110156115ed57600080fd5b81019080805190602001909291905050507bffffffffffffffffffffffffffffffffffffffffffffffffffffffff1916631626ba7e60e01b7bffffffffffffffffffffffffffffffffffffffffffffffffffffffff1916149250808452506116a1565b6040517f08c379a000000000000000000000000000000000000000000000000000000000815260040180806020018281038252603f8152602001806127ec603f913960400191505060405180910390fd5b5b509392505050565b600080600160606001901b0360001b8360001b1660001c9050606083901c9150915091565b6000602082018351101561172e576040517f08c379a000000000000000000000000000000000000000000000000000000000815260040180806020018281038252603c8152602001806128f3603c913960400191505060405180910390fd5b60006020830190508084015191505092915050565b604051806040016040528060008152602001600073ffffffffffffffffffffffffffffffffffffffff1681525090565b6000611786611781846123ed565b6123bc565b90508281526020810184848401111561179e57600080fd5b6117a98482856125b3565b509392505050565b6000813590506117c081612661565b92915050565b60008083601f8401126117d857600080fd5b8235905067ffffffffffffffff8111156117f157600080fd5b60208301915083604082028301111561180957600080fd5b9250929050565b60008135905061181f81612678565b92915050565b6000813590506118348161268f565b92915050565b6000815190506118498161268f565b92915050565b600082601f83011261186057600080fd5b8135611870848260208601611773565b91505092915050565b600081359050611888816126a6565b92915050565b60008151905061189d816126a6565b92915050565b6000602082840312156118b557600080fd5b60006118c3848285016117b1565b91505092915050565b600080600080600060a086880312156118e457600080fd5b60006118f2888289016117b1565b955050602061190388828901611825565b945050604061191488828901611879565b935050606086013567ffffffffffffffff81111561193157600080fd5b61193d8882890161184f565b925050608061194e88828901611810565b9150509295509295909350565b6000806040838503121561196e57600080fd5b600061197c858286016117b1565b925050602061198d85828601611879565b9150509250929050565b6000806000806000608086880312156119af57600080fd5b60006119bd888289016117b1565b95505060206119ce88828901611879565b945050604086013567ffffffffffffffff8111156119eb57600080fd5b6119f7888289016117c6565b93509350506060611a0a88828901611810565b9150509295509295909350565b600060208284031215611a2957600080fd5b6000611a3784828501611825565b91505092915050565b600060208284031215611a5257600080fd5b6000611a608482850161183a565b91505092915050565b600060208284031215611a7b57600080fd5b6000611a8984828501611879565b91505092915050565b600060208284031215611aa457600080fd5b6000611ab28482850161188e565b91505092915050565b6000611ac7838361202f565b60408301905092915050565b6000611adf838361206e565b60408301905092915050565b611af4816124e9565b82525050565b611b03816124e9565b82525050565b611b1a611b15826124e9565b6125f5565b82525050565b6000611b2c8385612467565b9350611b378261241d565b8060005b85811015611b7057611b4d82846124c7565b611b578882611abb565b9750611b628361244d565b925050600181019050611b3b565b5085925050509392505050565b6000611b8882612437565b611b928185612467565b9350611b9d83612427565b8060005b83811015611bce578151611bb58882611ad3565b9750611bc08361245a565b925050600181019050611ba1565b5085935050505092915050565b611bec611be782612507565b612607565b82525050565b611bfb81612533565b82525050565b611c12611c0d82612533565b612611565b82525050565b611c29611c248261253d565b61261b565b82525050565b6000611c3a82612442565b611c448185612478565b9350611c548185602086016125c2565b611c5d81612643565b840191505092915050565b6000611c7382612442565b611c7d8185612489565b9350611c8d8185602086016125c2565b80840191505092915050565b6000611ca6603a83612494565b91507f526571756972655574696c73237075626c697368496e697469616c5369676e6560008301527f72733a20494e56414c49445f5349474e41545552455f464c41470000000000006020830152604082019050919050565b6000611d0c6002836124a5565b91507f19010000000000000000000000000000000000000000000000000000000000006000830152600282019050919050565b6000611d4c603283612494565b91507f526571756972655574696c7323726571756972654d696e4e6f6e63653a204e4f60008301527f4e43455f42454c4f575f524551554952454400000000000000000000000000006020830152604082019050919050565b6000611db2602783612494565b91507f526571756972655574696c7323726571756972654e6f6e457870697265643a2060008301527f45585049524544000000000000000000000000000000000000000000000000006020830152604082019050919050565b6000611e18604883612494565b91507f526571756972655574696c73237075626c697368496e697469616c5369676e6560008301527f72733a20554e45585045435445445f434f554e5445524641435455414c5f494d60208301527f4147455f484153480000000000000000000000000000000000000000000000006040830152606082019050919050565b6000611ea4603283612494565b91507f4d6f64756c6541757468235f7369676e617475726556616c69646174696f6e3a60008301527f20494e56414c49445f5349474e415455524500000000000000000000000000006020830152604082019050919050565b6000611f0a603983612494565b91507f526571756972655574696c73237075626c697368496e697469616c5369676e6560008301527f72733a20494e56414c49445f4d454d424552535f434f554e54000000000000006020830152604082019050919050565b6000611f70603183612494565b91507f526571756972655574696c73237075626c697368436f6e6669673a20554e455860008301527f5045435445445f494d4147455f484153480000000000000000000000000000006020830152604082019050919050565b6000611fd6604083612494565b91507f526571756972655574696c73237075626c697368436f6e6669673a20554e455860008301527f5045435445445f434f554e5445524641435455414c5f494d4147455f484153486020830152604082019050919050565b6040820161204060008301836124d2565b61204d60008501826120ac565b5061205b60208301836124b0565b6120686020850182611aeb565b50505050565b60408201600082015161208460008501826120ac565b5060208201516120976020850182611aeb565b50505050565b6120a6816125a1565b82525050565b6120b581612597565b82525050565b6120c481612597565b82525050565b6120db6120d682612597565b612637565b82525050565b60006120ed8287611bdb565b6001820191506120fd8286611b09565b60148201915061210d8285611c01565b60208201915061211d8284611c01565b60208201915081905095945050505050565b600061213b8284611c18565b60048201915081905092915050565b60006121568284611c68565b915081905092915050565b600061216c82611cff565b915061217882866120ca565b6020820191506121888285611b09565b6014820191506121988284611c01565b602082019150819050949350505050565b600060208201905081810360008301526121c4818486611b20565b90509392505050565b600060208201905081810360008301526121e78184611b7d565b905092915050565b60006020820190506122046000830184611bf2565b92915050565b600060608201905061221f6000830186611bf2565b61222c60208301856120bb565b6122396040830184611afa565b949350505050565b6000602082019050818103600083015261225a81611c99565b9050919050565b6000602082019050818103600083015261227a81611d3f565b9050919050565b6000602082019050818103600083015261229a81611da5565b9050919050565b600060208201905081810360008301526122ba81611e0b565b9050919050565b600060208201905081810360008301526122da81611e97565b9050919050565b600060208201905081810360008301526122fa81611efd565b9050919050565b6000602082019050818103600083015261231a81611f63565b9050919050565b6000602082019050818103600083015261233a81611fc9565b9050919050565b6000604082019050612356600083018561209d565b81810360208301526123688184611c2f565b90509392505050565b600060208201905061238660008301846120bb565b92915050565b60006040820190506123a160008301856120bb565b81810360208301526123b38184611c2f565b90509392505050565b6000604051905081810181811067ffffffffffffffff821117156123e3576123e2612641565b5b8060405250919050565b600067ffffffffffffffff82111561240857612407612641565b5b601f19601f8301169050602081019050919050565b6000819050919050565b6000819050602082019050919050565b600081519050919050565b600081519050919050565b6000604082019050919050565b6000602082019050919050565b600082825260208201905092915050565b600082825260208201905092915050565b600081905092915050565b600082825260208201905092915050565b600081905092915050565b60006124bf60208401846117b1565b905092915050565b600082905092915050565b60006124e16020840184611879565b905092915050565b60006124f482612577565b9050919050565b60008115159050919050565b60007fff0000000000000000000000000000000000000000000000000000000000000082169050919050565b6000819050919050565b60007fffffffff0000000000000000000000000000000000000000000000000000000082169050919050565b600061ffff82169050919050565b600073ffffffffffffffffffffffffffffffffffffffff82169050919050565b6000819050919050565b60006125ac82612569565b9050919050565b82818337600083830152505050565b60005b838110156125e05780820151818401526020810190506125c5565b838111156125ef576000848401525b50505050565b600061260082612625565b9050919050565b6000819050919050565b6000819050919050565b6000819050919050565b600061263082612654565b9050919050565b6000819050919050565bfe5b6000601f19601f8301169050919050565b60008160601b9050919050565b61266a816124e9565b811461267557600080fd5b50565b612681816124fb565b811461268c57600080fd5b50565b61269881612533565b81146126a357600080fd5b50565b6126af81612597565b81146126ba57600080fd5b5056fe5369676e617475726556616c696461746f72237265636f7665725369676e65723a20696e76616c6964207369676e6174757265202773272076616c75655369676e617475726556616c696461746f72237265636f7665725369676e65723a20696e76616c6964207369676e6174757265206c656e6774684c696242797465732372656164416464726573733a204f55545f4f465f424f554e44534c696242797465732372656164466972737455696e7431363a204f55545f4f465f424f554e44535369676e617475726556616c696461746f72237265636f7665725369676e65723a20696e76616c6964207369676e6174757265202776272076616c75655369676e617475726556616c696461746f72237265636f7665725369676e65723a20494e56414c49445f5349474e45525369676e617475726556616c696461746f7223697356616c69645369676e61747572653a20554e535550504f525445445f5349474e41545552455f545950454c696242797465732372656164427974657336363a204f55545f4f465f424f554e44535369676e617475726556616c696461746f72237265636f7665725369676e65723a20554e535550504f525445445f5349474e41545552455f545950454c69624279746573237265616455696e743855696e74383a204f55545f4f465f424f554e44534c69624279746573237265616442797465733a204f55545f4f465f424f554e44534c69624279746573237265616455696e7431363a204f55545f4f465f424f554e44534c696242797465732372656164427974657333323a20475245415445525f4f525f455155414c5f544f5f33325f4c454e4754485f5245515549524544a2646970667358221220fbe8e71c18304a69e1618f0717fe5401d1c3d5e7cd179a38838c685ca261612764736f6c63430007060033608060405234801561001057600080fd5b5060405161029f38038061029f8339818101604052810190610032919061009e565b803055506100cb565b600080fd5b600073ffffffffffffffffffffffffffffffffffffffff82169050919050565b600061006b82610040565b9050919050565b61007b81610060565b811461008657600080fd5b50565b60008151905061009881610072565b92915050565b6000602082840312156100b4576100b361003b565b5b60006100c284828501610089565b91505092915050565b6101c5806100da6000396000f3fe6080604052600436106100225760003560e01c806390611127146100a857610076565b36610076573373ffffffffffffffffffffffffffffffffffffffff16347f606834f57405380c4fb88d1f4850326ad3885f014bab3b568dfbf7a041eef73860405161006c90610113565b60405180910390a3005b60006100806100d3565b90503660008037600080366000845af43d6000803e80600081146100a3573d6000f35b3d6000fd5b3480156100b457600080fd5b506100bd6100d3565b6040516100ca9190610174565b60405180910390f35b60003054905090565b600082825260208201905092915050565b50565b60006100fd6000836100dc565b9150610108826100ed565b600082019050919050565b6000602082019050818103600083015261012c816100f0565b9050919050565b600073ffffffffffffffffffffffffffffffffffffffff82169050919050565b600061015e82610133565b9050919050565b61016e81610153565b82525050565b60006020820190506101896000830184610165565b9291505056fea2646970667358221220d43fa02972046db2bc81804ebf600d5b46b97e55c738ea899a28224e111b588564736f6c63430008110033",
  "linkReferences": {},
  "deployedLinkReferences": {}
}