{
  "_format": "hh-sol-artifact-1",
  "contractName": "MainModuleUpgradable",
  "sourceName": "contracts/modules/MainModuleUpgradable.sol",
  "abi": [
    {
      "anonymous": false,
      "inputs": [
        {
          "indexed": false,
          "internalType": "address",
          "name": "_contract",
          "type": "address"
        }
      ],
      "name": "CreatedContract",
      "type": "event"
    },
    {
      "anonymous": false,
      "inputs": [
        {
          "indexed": false,
          "internalType": "bytes32",
          "name": "newImageHash",
          "type": "bytes32"
        }
      ],
      "name": "ImageHashUpdated",
      "type": "event"
    },
    {
      "anonymous": false,
      "inputs": [
        {
          "indexed": false,
          "internalType": "address",
          "name": "newImplementation",
          "type": "address"
        }
      ],
      "name": "ImplementationUpdated",
      "type": "event"
    },
    {
      "anonymous": false,
      "inputs": [
        {
          "indexed": false,
          "internalType": "uint256",
          "name": "_space",
          "type": "uint256"
        },
        {
          "indexed": false,
          "internalType": "uint256",
          "name": "_newNonce",
          "type": "uint256"
        }
      ],
      "name": "NonceChange",
      "type": "event"
    },
    {
      "anonymous": true,
      "inputs": [
        {
          "indexed": false,
          "internalType": "bytes32",
          "name": "_tx",
          "type": "bytes32"
        }
      ],
      "name": "TxExecuted",
      "type": "event"
    },
    {
      "anonymous": false,
      "inputs": [
        {
          "indexed": false,
          "internalType": "bytes32",
          "name": "_tx",
          "type": "bytes32"
        },
        {
          "indexed": false,
          "internalType": "bytes",
          "name": "_reason",
          "type": "bytes"
        }
      ],
      "name": "TxFailed",
      "type": "event"
    },
    {
      "stateMutability": "payable",
      "type": "fallback"
    },
    {
      "inputs": [
        {
          "internalType": "bytes4",
          "name": "_signature",
          "type": "bytes4"
        },
        {
          "internalType": "address",
          "name": "_implementation",
          "type": "address"
        }
      ],
      "name": "addHook",
      "outputs": [],
      "stateMutability": "nonpayable",
      "type": "function"
    },
    {
      "inputs": [
        {
          "internalType": "bytes",
          "name": "_code",
          "type": "bytes"
        }
      ],
      "name": "createContract",
      "outputs": [
        {
          "internalType": "address",
          "name": "addr",
          "type": "address"
        }
      ],
      "stateMutability": "payable",
      "type": "function"
    },
    {
      "inputs": [
        {
          "components": [
            {
              "internalType": "bool",
              "name": "delegateCall",
              "type": "bool"
            },
            {
              "internalType": "bool",
              "name": "revertOnError",
              "type": "bool"
            },
            {
              "internalType": "uint256",
              "name": "gasLimit",
              "type": "uint256"
            },
            {
              "internalType": "address",
              "name": "target",
              "type": "address"
            },
            {
              "internalType": "uint256",
              "name": "value",
              "type": "uint256"
            },
            {
              "internalType": "bytes",
              "name": "data",
              "type": "bytes"
            }
          ],
          "internalType": "struct IModuleCalls.Transaction[]",
          "name": "_txs",
          "type": "tuple[]"
        },
        {
          "internalType": "uint256",
          "name": "_nonce",
          "type": "uint256"
        },
        {
          "internalType": "bytes",
          "name": "_signature",
          "type": "bytes"
        }
      ],
      "name": "execute",
      "outputs": [],
      "stateMutability": "nonpayable",
      "type": "function"
    },
    {
      "inputs": [],
      "name": "imageHash",
      "outputs": [
        {
          "internalType": "bytes32",
          "name": "",
          "type": "bytes32"
        }
      ],
      "stateMutability": "view",
      "type": "function"
    },
    {
      "inputs": [
        {
          "internalType": "bytes32",
          "name": "_hash",
          "type": "bytes32"
        },
        {
          "internalType": "bytes",
          "name": "_signatures",
          "type": "bytes"
        }
      ],
      "name": "isValidSignature",
      "outputs": [
        {
          "internalType": "bytes4",
          "name": "",
          "type": "bytes4"
        }
      ],
      "stateMutability": "view",
      "type": "function"
    },
    {
      "inputs": [
        {
          "internalType": "bytes",
          "name": "_data",
          "type": "bytes"
        },
        {
          "internalType": "bytes",
          "name": "_signatures",
          "type": "bytes"
        }
      ],
      "name": "isValidSignature",
      "outputs": [
        {
          "internalType": "bytes4",
          "name": "",
          "type": "bytes4"
        }
      ],
      "stateMutability": "view",
      "type": "function"
    },
    {
      "inputs": [],
      "name": "nonce",
      "outputs": [
        {
          "internalType": "uint256",
          "name": "",
          "type": "uint256"
        }
      ],
      "stateMutability": "view",
      "type": "function"
    },
    {
      "inputs": [
        {
          "internalType": "address",
          "name": "",
          "type": "address"
        },
        {
          "internalType": "address",
          "name": "",
          "type": "address"
        },
        {
          "internalType": "uint256[]",
          "name": "",
          "type": "uint256[]"
        },
        {
          "internalType": "uint256[]",
          "name": "",
          "type": "uint256[]"
        },
        {
          "internalType": "bytes",
          "name": "",
          "type": "bytes"
        }
      ],
      "name": "onERC1155BatchReceived",
      "outputs": [
        {
          "internalType": "bytes4",
          "name": "",
          "type": "bytes4"
        }
      ],
      "stateMutability": "nonpayable",
      "type": "function"
    },
    {
      "inputs": [
        {
          "internalType": "address",
          "name": "",
          "type": "address"
        },
        {
          "internalType": "address",
          "name": "",
          "type": "address"
        },
        {
          "internalType": "uint256",
          "name": "",
          "type": "uint256"
        },
        {
          "internalType": "uint256",
          "name": "",
          "type": "uint256"
        },
        {
          "internalType": "bytes",
          "name": "",
          "type": "bytes"
        }
      ],
      "name": "onERC1155Received",
      "outputs": [
        {
          "internalType": "bytes4",
          "name": "",
          "type": "bytes4"
        }
      ],
      "stateMutability": "nonpayable",
      "type": "function"
    },
    {
      "inputs": [
        {
          "internalType": "address",
          "name": "",
          "type": "address"
        },
        {
          "internalType": "address",
          "name": "",
          "type": "address"
        },
        {
          "internalType": "uint256",
          "name": "",
          "type": "uint256"
        },
        {
          "internalType": "bytes",
          "name": "",
          "type": "bytes"
        }
      ],
      "name": "onERC721Received",
      "outputs": [
        {
          "internalType": "bytes4",
          "name": "",
          "type": "bytes4"
        }
      ],
      "stateMutability": "nonpayable",
      "type": "function"
    },
    {
      "inputs": [
        {
          "internalType": "bytes4",
          "name": "_signature",
          "type": "bytes4"
        }
      ],
      "name": "readHook",
      "outputs": [
        {
          "internalType": "address",
          "name": "",
          "type": "address"
        }
      ],
      "stateMutability": "view",
      "type": "function"
    },
    {
      "inputs": [
        {
          "internalType": "uint256",
          "name": "_space",
          "type": "uint256"
        }
      ],
      "name": "readNonce",
      "outputs": [
        {
          "internalType": "uint256",
          "name": "",
          "type": "uint256"
        }
      ],
      "stateMutability": "view",
      "type": "function"
    },
    {
      "inputs": [
        {
          "internalType": "bytes4",
          "name": "_signature",
          "type": "bytes4"
        }
      ],
      "name": "removeHook",
      "outputs": [],
      "stateMutability": "nonpayable",
      "type": "function"
    },
    {
      "inputs": [
        {
          "components": [
            {
              "internalType": "bool",
              "name": "delegateCall",
              "type": "bool"
            },
            {
              "internalType": "bool",
              "name": "revertOnError",
              "type": "bool"
            },
            {
              "internalType": "uint256",
              "name": "gasLimit",
              "type": "uint256"
            },
            {
              "internalType": "address",
              "name": "target",
              "type": "address"
            },
            {
              "internalType": "uint256",
              "name": "value",
              "type": "uint256"
            },
            {
              "internalType": "bytes",
              "name": "data",
              "type": "bytes"
            }
          ],
          "internalType": "struct IModuleCalls.Transaction[]",
          "name": "_txs",
          "type": "tuple[]"
        }
      ],
      "name": "selfExecute",
      "outputs": [],
      "stateMutability": "nonpayable",
      "type": "function"
    },
    {
      "inputs": [
        {
          "internalType": "bytes4",
          "name": "_interfaceID",
          "type": "bytes4"
        }
      ],
      "name": "supportsInterface",
      "outputs": [
        {
          "internalType": "bool",
          "name": "",
          "type": "bool"
        }
      ],
      "stateMutability": "pure",
      "type": "function"
    },
    {
      "inputs": [
        {
          "internalType": "bytes32",
          "name": "_imageHash",
          "type": "bytes32"
        }
      ],
      "name": "updateImageHash",
      "outputs": [],
      "stateMutability": "nonpayable",
      "type": "function"
    },
    {
      "inputs": [
        {
          "internalType": "address",
          "name": "_implementation",
          "type": "address"
        }
      ],
      "name": "updateImplementation",
      "outputs": [],
      "stateMutability": "nonpayable",
      "type": "function"
    },
    {
      "stateMutability": "payable",
      "type": "receive"
    }
  ],
  "bytecode": "0x608060405234801561001057600080fd5b506138c1806100206000396000f3fe6080604052600436106101025760003560e01c806351605d801161009557806390042baf1161006457806390042baf14610463578063affed0e014610493578063b93ea7ad146104be578063bc197c81146104e7578063f23a6e611461052457610109565b806351605d80146103a957806361c2926c146103d45780637a9a1628146103fd5780638c3f55631461042657610109565b80631a9b2337116100d15780631a9b2337146102dd57806320c13b0b1461031a57806329561426146103575780634fcf3eca1461038057610109565b806301ffc9a7146101fd578063025b22bc1461023a578063150b7a02146102635780631626ba7e146102a057610109565b3661010957005b60006101386000357fffffffff0000000000000000000000000000000000000000000000000000000016610561565b9050600073ffffffffffffffffffffffffffffffffffffffff168173ffffffffffffffffffffffffffffffffffffffff16146101fa576000808273ffffffffffffffffffffffffffffffffffffffff16600036604051808383808284378083019250505092505050600060405180830381855af49150503d80600081146101db576040519150601f19603f3d011682016040523d82523d6000602084013e6101e0565b606091505b5091509150816101f257805160208201fd5b805160208201f35b50005b34801561020957600080fd5b50610224600480360381019061021f9190612c00565b6105b9565b60405161023191906130ef565b60405180910390f35b34801561024657600080fd5b50610261600480360381019061025c91906128b8565b6105cb565b005b34801561026f57600080fd5b5061028a600480360381019061028591906129ad565b61071c565b6040516102979190613155565b60405180910390f35b3480156102ac57600080fd5b506102c760048036038101906102c29190612ba8565b610731565b6040516102d49190613155565b60405180910390f35b3480156102e957600080fd5b5061030460048036038101906102ff9190612c00565b6107ac565b60405161031191906130d4565b60405180910390f35b34801561032657600080fd5b50610341600480360381019061033c9190612c65565b6107be565b60405161034e9190613155565b60405180910390f35b34801561036357600080fd5b5061037e60048036038101906103799190612b7f565b610858565b005b34801561038c57600080fd5b506103a760048036038101906103a29190612c00565b6108e8565b005b3480156103b557600080fd5b506103be610a08565b6040516103cb919061310a565b60405180910390f35b3480156103e057600080fd5b506103fb60048036038101906103f69190612abf565b610a3b565b005b34801561040957600080fd5b50610424600480360381019061041f9190612b00565b610b00565b005b34801561043257600080fd5b5061044d60048036038101906104489190612d1b565b610b97565b60405161045a9190613205565b60405180910390f35b61047d60048036038101906104789190612cda565b610bd3565b60405161048a91906130d4565b60405180910390f35b34801561049f57600080fd5b506104a8610cb5565b6040516104b59190613205565b60405180910390f35b3480156104ca57600080fd5b506104e560048036038101906104e09190612c29565b610cc6565b005b3480156104f357600080fd5b5061050e600480360381019061050991906128e1565b610de5565b60405161051b9190613155565b60405180910390f35b34801561053057600080fd5b5061054b60048036038101906105469190612a2d565b610dfd565b6040516105589190613155565b60405180910390f35b60006105af7fbe27a319efc8734e89e26ba4bc95f5c788584163b959f03fa04e2d7ab4b9a12060001b837bffffffffffffffffffffffffffffffffffffffffffffffffffffffff1916610e13565b60001c9050919050565b60006105c482610e52565b9050919050565b3073ffffffffffffffffffffffffffffffffffffffff163373ffffffffffffffffffffffffffffffffffffffff161461064f576040517f08c379a00000000000000000000000000000000000000000000000000000000081526004018080602001828103825260278152602001806138656027913960400191505060405180910390fd5b61066e8173ffffffffffffffffffffffffffffffffffffffff16610ed4565b6106c3576040517f08c379a000000000000000000000000000000000000000000000000000000000815260040180806020018281038252603981526020018061374b6039913960400191505060405180910390fd5b6106cc81610ee8565b7f310ba5f1d2ed074b51e2eccd052a47ae9ab7c6b800d1fca3db3999d6a592ca0381604051808273ffffffffffffffffffffffffffffffffffffffff16815260200191505060405180910390a150565b600063150b7a0260e01b905095945050505050565b600061078961073f85610eee565b84848080601f016020809104026020016040519081016040528093929190818152602001838380828437600081840152601f19601f82011690508083019250505050505050610f74565b1561079d57631626ba7e60e01b90506107a5565b600060e01b90505b9392505050565b60006107b782610561565b9050919050565b60006108346107ea86866040518083838082843780830192505050925050506040518091039020610eee565b84848080601f016020809104026020016040519081016040528093929190818152602001838380828437600081840152601f19601f82011690508083019250505050505050610f74565b15610848576320c13b0b60e01b9050610850565b600060e01b90505b949350505050565b3073ffffffffffffffffffffffffffffffffffffffff163373ffffffffffffffffffffffffffffffffffffffff16146108dc576040517f08c379a00000000000000000000000000000000000000000000000000000000081526004018080602001828103825260278152602001806138656027913960400191505060405180910390fd5b6108e581610f8f565b50565b3073ffffffffffffffffffffffffffffffffffffffff163373ffffffffffffffffffffffffffffffffffffffff161461096c576040517f08c379a00000000000000000000000000000000000000000000000000000000081526004018080602001828103825260278152602001806138656027913960400191505060405180910390fd5b600073ffffffffffffffffffffffffffffffffffffffff1661098d82610561565b73ffffffffffffffffffffffffffffffffffffffff1614156109fa576040517f08c379a000000000000000000000000000000000000000000000000000000000815260040180806020018281038252602b8152602001806135a9602b913960400191505060405180910390fd5b610a05816000611052565b50565b6000610a367fea7157fa25e3aa17d0ae2d5280fa4e24d421c61842aa85e45194e1145aa72bf860001b6110bc565b905090565b3073ffffffffffffffffffffffffffffffffffffffff163373ffffffffffffffffffffffffffffffffffffffff1614610abf576040517f08c379a00000000000000000000000000000000000000000000000000000000081526004018080602001828103825260278152602001806138656027913960400191505060405180910390fd5b6000610af082604051602001610ad591906131d0565b60405160208183030381529060405280519060200120610eee565b9050610afc81836110c7565b5050565b610b09826112ae565b6000610b3c8385604051602001610b21929190613220565b60405160208183030381529060405280519060200120610eee565b9050610b48818361135f565b610b87576040517f08c379a0000000000000000000000000000000000000000000000000000000008152600401610b7e906131b0565b60405180910390fd5b610b9181856110c7565b50505050565b6000610bc97f8d0bf1fd623d628c741362c1289948e57b3e2905218c676d3e69abee36d6ae2e60001b8360001b610e13565b60001c9050919050565b60003073ffffffffffffffffffffffffffffffffffffffff163373ffffffffffffffffffffffffffffffffffffffff1614610c59576040517f08c379a00000000000000000000000000000000000000000000000000000000081526004018080602001828103825260278152602001806138656027913960400191505060405180910390fd5b81516020830134f090507fa506ad4e7f05eceba62a023c3219e5bd98a615f4fa87e2afb08a2da5cf62bf0c81604051808273ffffffffffffffffffffffffffffffffffffffff16815260200191505060405180910390a1919050565b6000610cc16000610b97565b905090565b3073ffffffffffffffffffffffffffffffffffffffff163373ffffffffffffffffffffffffffffffffffffffff1614610d4a576040517f08c379a00000000000000000000000000000000000000000000000000000000081526004018080602001828103825260278152602001806138656027913960400191505060405180910390fd5b600073ffffffffffffffffffffffffffffffffffffffff16610d6b83610561565b73ffffffffffffffffffffffffffffffffffffffff1614610dd7576040517f08c379a000000000000000000000000000000000000000000000000000000000815260040180806020018281038252602c8152602001806136bd602c913960400191505060405180910390fd5b610de18282611052565b5050565b600063bc197c8160e01b905098975050505050505050565b600063f23a6e6160e01b90509695505050505050565b60008083836040516020018083815260200182815260200192505050604051602081830303815290604052805190602001209050805491505092915050565b60007f90042baf000000000000000000000000000000000000000000000000000000007bffffffffffffffffffffffffffffffffffffffffffffffffffffffff1916827bffffffffffffffffffffffffffffffffffffffffffffffffffffffff19161415610ec35760019050610ecf565b610ecc82611391565b90505b919050565b600080823b90506000811415915050919050565b80305550565b60008046905080308460405160200180807f19010000000000000000000000000000000000000000000000000000000000008152506002018481526020018373ffffffffffffffffffffffffffffffffffffffff1660601b8152601401828152602001935050505060405160208183030381529060405280519060200120915050919050565b600080610f81848461154b565b505090508091505092915050565b6000801b811415610feb576040517f08c379a00000000000000000000000000000000000000000000000000000000081526004018080602001828103825260378152602001806135726037913960400191505060405180910390fd5b6110187fea7157fa25e3aa17d0ae2d5280fa4e24d421c61842aa85e45194e1145aa72bf860001b826117c1565b7f307ed6bd941ee9fc80f369c94af5fa11e25bab5102a6140191756c5474a30bfa816040518082815260200191505060405180910390a150565b6110b87fbe27a319efc8734e89e26ba4bc95f5c788584163b959f03fa04e2d7ab4b9a12060001b837bffffffffffffffffffffffffffffffffffffffffffffffffffffffff19168373ffffffffffffffffffffffffffffffffffffffff1660001b6117c8565b5050565b600081549050919050565b60005b81518110156112a95760008282815181106110e157fe5b602002602001015190506000606082604001515a1015611136576040517f08c379a000000000000000000000000000000000000000000000000000000000815260040161112d90613190565b60405180910390fd5b8260000151156111d457826060015173ffffffffffffffffffffffffffffffffffffffff166000846040015114611171578360400151611173565b5a5b8460a0015160405161118591906130bd565b6000604051808303818686f4925050503d80600081146111c1576040519150601f19603f3d011682016040523d82523d6000602084013e6111c6565b606091505b50809250819350505061126c565b826060015173ffffffffffffffffffffffffffffffffffffffff168360800151600085604001511461120a57846040015161120c565b5a5b908560a0015160405161121f91906130bd565b600060405180830381858888f193505050503d806000811461125d576040519150601f19603f3d011682016040523d82523d6000602084013e611262565b606091505b5080925081935050505b811561128d5785604051611280919061310a565b60405180910390a0611299565b611298838783611804565b5b50505080806001019150506110ca565b505050565b6000806112ba83611854565b9150915060006112c983610b97565b905080821461130d576040517f08c379a000000000000000000000000000000000000000000000000000000000815260040161130490613170565b60405180910390fd5b600060018301905061131f8482611879565b7f1f180c27086c7a39ea2a7b25239d1ab92348f07ca7bb59d1438fcf527568f8818482604051611350929190613250565b60405180910390a15050505050565b60008060008061136f868661154b565b92509250925081156113855761138481610f8f565b5b82935050505092915050565b60007fec6aba50000000000000000000000000000000000000000000000000000000007bffffffffffffffffffffffffffffffffffffffffffffffffffffffff1916827bffffffffffffffffffffffffffffffffffffffffffffffffffffffff1916148061145c57507f4e2312e0000000000000000000000000000000000000000000000000000000007bffffffffffffffffffffffffffffffffffffffffffffffffffffffff1916827bffffffffffffffffffffffffffffffffffffffffffffffffffffffff1916145b806114c457507f150b7a02000000000000000000000000000000000000000000000000000000007bffffffffffffffffffffffffffffffffffffffffffffffffffffffff1916827bffffffffffffffffffffffffffffffffffffffffffffffffffffffff1916145b8061152c57507fc0ee0b8a000000000000000000000000000000000000000000000000000000007bffffffffffffffffffffffffffffffffffffffffffffffffffffffff1916827bffffffffffffffffffffffffffffffffffffffffffffffffffffffff1916145b1561153a5760019050611546565b611543826118b1565b90505b919050565b600080600080600061155c86611933565b9150915060008261ffff1660001b905060005b875183101561178b576000806000611590868c6119a690919063ffffffff16565b8260ff1692508160ff16915080985081945082955050505060018314156115d1576115c4868c611a3290919063ffffffff16565b8097508192505050611734565b600083141561160e5760606115ef878d611ac990919063ffffffff16565b80985081925050506116018d82611bad565b9150828501945050611733565b60028314156116e15761162a868c611a3290919063ffffffff16565b80975081925050506000611647878d611f7f90919063ffffffff16565b8161ffff1691508098508192505050606061166d88838f6120049092919063ffffffff16565b80995081925050506116808e8483612107565b6116d5576040517f08c379a000000000000000000000000000000000000000000000000000000000815260040180806020018281038252603281526020018061368b6032913960400191505060405180910390fd5b83860195505050611732565b6040517f08c379a000000000000000000000000000000000000000000000000000000000815260040180806020018281038252602c815260200180613546602c913960400191505060405180910390fd5b5b5b848282604051602001808481526020018381526020018273ffffffffffffffffffffffffffffffffffffffff168152602001935050505060405160208183030381529060405280519060200120945050505061156f565b6000806117978461233a565b915091508561ffff1683101580156117ac5750815b81859850985098505050505050509250925092565b8082555050565b60008383604051602001808381526020018281526020019250505060405160208183030381529060405280519060200120905081815550505050565b82602001511561181657805160208201fd5b7f3dbd1590ea96dd3253a91f24e64e3a502e1225d602a5731357bc12643070ccd78282604051611847929190613125565b60405180910390a1505050565b600080600160606001901b0360001b8360001b1660001c9050606083901c9150915091565b6118ad7f8d0bf1fd623d628c741362c1289948e57b3e2905218c676d3e69abee36d6ae2e60001b8360001b8360001b6117c8565b5050565b60007f025b22bc000000000000000000000000000000000000000000000000000000007bffffffffffffffffffffffffffffffffffffffffffffffffffffffff1916827bffffffffffffffffffffffffffffffffffffffffffffffffffffffff19161415611922576001905061192e565b61192b82612385565b90505b919050565b60008082602001518060f01c925060029150508251600211156119a1576040517f08c379a00000000000000000000000000000000000000000000000000000000081526004018080602001828103825260278152602001806135f76027913960400191505060405180910390fd5b915091565b6000806000846020018401518060f81c935060ff8160f01c169250600285019150508381116119d157fe5b8451811115611a2b576040517f08c379a00000000000000000000000000000000000000000000000000000000081526004018080602001828103825260268152602001806137c06026913960400191505060405180910390fd5b9250925092565b6000808360200183015173ffffffffffffffffffffffffffffffffffffffff8160601c16925060148401915050828111611a6857fe5b8351811115611ac2576040517f08c379a00000000000000000000000000000000000000000000000000000000081526004018080602001828103825260238152602001806135d46023913960400191505060405180910390fd5b9250929050565b60606000604267ffffffffffffffff81118015611ae557600080fd5b506040519080825280601f01601f191660200182016040528015611b185781602001600182028036833780820191505090505b50915082840160200180516020840152602081015160408401526022810151604284015260428401915050828111611b4c57fe5b8351811115611ba6576040517f08c379a00000000000000000000000000000000000000000000000000000000081526004018080602001828103825260238152602001806137286023913960400191505060405180910390fd5b9250929050565b60006042825114611c09576040517f08c379a000000000000000000000000000000000000000000000000000000000815260040180806020018281038252603a81526020018061350c603a913960400191505060405180910390fd5b600082600184510381518110611c1b57fe5b602001015160f81c60f81b60f81c60ff169050600083604081518110611c3d57fe5b602001015160f81c60f81b60f81c90506000611c6360008661240790919063ffffffff16565b90506000611c7b60208761240790919063ffffffff16565b90507f7fffffffffffffffffffffffffffffff5d576e7357a4501ddfe92f46681b20a08160001c1115611cf9576040517f08c379a000000000000000000000000000000000000000000000000000000000815260040180806020018281038252603d8152602001806134cf603d913960400191505060405180910390fd5b601b8360ff1614158015611d115750601c8360ff1614155b15611d67576040517f08c379a000000000000000000000000000000000000000000000000000000000815260040180806020018281038252603d81526020018061361e603d913960400191505060405180910390fd5b6001841415611ddb5760018784848460405160008152602001604052604051808581526020018460ff1681526020018381526020018281526020019450505050506020604051602081039080840390855afa158015611dca573d6000803e3d6000fd5b505050602060405103519450611eef565b6002841415611e9d5760018760405160200180807f19457468657265756d205369676e6564204d6573736167653a0a333200000000815250601c018281526020019150506040516020818303038152906040528051906020012084848460405160008152602001604052604051808581526020018460ff1681526020018381526020018281526020019450505050506020604051602081039080840390855afa158015611e8c573d6000803e3d6000fd5b505050602060405103519450611eee565b6040517f08c379a000000000000000000000000000000000000000000000000000000000815260040180806020018281038252603c815260200180613784603c913960400191505060405180910390fd5b5b600073ffffffffffffffffffffffffffffffffffffffff168573ffffffffffffffffffffffffffffffffffffffff161415611f75576040517f08c379a000000000000000000000000000000000000000000000000000000000815260040180806020018281038252603081526020018061365b6030913960400191505060405180910390fd5b5050505092915050565b6000808360200183015161ffff8160f01c16925060028401915050828111611fa357fe5b8351811115611ffd576040517f08c379a00000000000000000000000000000000000000000000000000000000081526004018080602001828103825260228152602001806138076022913960400191505060405180910390fd5b9250929050565b606060008267ffffffffffffffff8111801561201f57600080fd5b506040519080825280601f01601f1916602001820160405280156120525781602001600182028036833780820191505090505b509150838501602001600060205b8581101561207e578183015181860152809150602081019050612060565b8560200185018051838501518388015280825287890195505050505050838110156120a557fe5b84518111156120ff576040517f08c379a00000000000000000000000000000000000000000000000000000000081526004018080602001828103825260218152602001806137e66021913960400191505060405180910390fd5b935093915050565b6000808260018451038151811061211a57fe5b602001015160f81c60f81b60f81c60ff169050600181148061213c5750600281145b15612180578373ffffffffffffffffffffffffffffffffffffffff166121628685611bad565b73ffffffffffffffffffffffffffffffffffffffff16149150612332565b60038114156122e0576000835190506001810384528473ffffffffffffffffffffffffffffffffffffffff16631626ba7e87866040518363ffffffff1660e01b81526004018083815260200180602001828103825283818151815260200191508051906020019080838360005b838110156122085780820151818401526020810190506121ed565b50505050905090810190601f1680156122355780820380516001836020036101000a031916815260200191505b50935050505060206040518083038186803b15801561225357600080fd5b505afa158015612267573d6000803e3d6000fd5b505050506040513d602081101561227d57600080fd5b81019080805190602001909291905050507bffffffffffffffffffffffffffffffffffffffffffffffffffffffff1916631626ba7e60e01b7bffffffffffffffffffffffffffffffffffffffffffffffffffffffff191614925080845250612331565b6040517f08c379a000000000000000000000000000000000000000000000000000000000815260040180806020018281038252603f8152602001806136e9603f913960400191505060405180910390fd5b5b509392505050565b6000806000801b831415801561237a57506123777fea7157fa25e3aa17d0ae2d5280fa4e24d421c61842aa85e45194e1145aa72bf860001b6110bc565b83145b600091509150915091565b60007f389901c7000000000000000000000000000000000000000000000000000000007bffffffffffffffffffffffffffffffffffffffffffffffffffffffff1916827bffffffffffffffffffffffffffffffffffffffffffffffffffffffff191614156123f65760019050612402565b6123ff8261247b565b90505b919050565b60006020820183511015612466576040517f08c379a000000000000000000000000000000000000000000000000000000000815260040180806020018281038252603c815260200180613829603c913960400191505060405180910390fd5b60006020830190508084015191505092915050565b60007f783649a6000000000000000000000000000000000000000000000000000000007bffffffffffffffffffffffffffffffffffffffffffffffffffffffff1916827bffffffffffffffffffffffffffffffffffffffffffffffffffffffff191614156124ec57600190506124f8565b6124f5826124fd565b90505b919050565b6000807bffffffffffffffffffffffffffffffffffffffffffffffffffffffff1916827bffffffffffffffffffffffffffffffffffffffffffffffffffffffff191614806125a857507f36e78175000000000000000000000000000000000000000000000000000000007bffffffffffffffffffffffffffffffffffffffffffffffffffffffff1916827bffffffffffffffffffffffffffffffffffffffffffffffffffffffff1916145b156125b657600190506125c2565b6125bf826125c7565b90505b919050565b60006301ffc9a760e01b7bffffffffffffffffffffffffffffffffffffffffffffffffffffffff1916827bffffffffffffffffffffffffffffffffffffffffffffffffffffffff1916149050919050565b600061262b612626846132aa565b613279565b9050808382526020820190508260005b8581101561266b578135850161265188826127ef565b84526020840193506020830192505060018101905061263b565b5050509392505050565b6000612688612683846132d6565b613279565b9050828152602081018484840111156126a057600080fd5b6126ab848285613406565b509392505050565b6000813590506126c28161345b565b92915050565b600082601f8301126126d957600080fd5b81356126e9848260208601612618565b91505092915050565b60008083601f84011261270457600080fd5b8235905067ffffffffffffffff81111561271d57600080fd5b60208301915083602082028301111561273557600080fd5b9250929050565b60008135905061274b81613472565b92915050565b60008135905061276081613489565b92915050565b600081359050612775816134a0565b92915050565b60008083601f84011261278d57600080fd5b8235905067ffffffffffffffff8111156127a657600080fd5b6020830191508360018202830111156127be57600080fd5b9250929050565b600082601f8301126127d657600080fd5b81356127e6848260208601612675565b91505092915050565b600060c0828403121561280157600080fd5b61280b60c0613279565b9050600061281b8482850161273c565b600083015250602061282f8482850161273c565b6020830152506040612843848285016128a3565b6040830152506060612857848285016126b3565b606083015250608061286b848285016128a3565b60808301525060a082013567ffffffffffffffff81111561288b57600080fd5b612897848285016127c5565b60a08301525092915050565b6000813590506128b2816134b7565b92915050565b6000602082840312156128ca57600080fd5b60006128d8848285016126b3565b91505092915050565b60008060008060008060008060a0898b0312156128fd57600080fd5b600061290b8b828c016126b3565b985050602061291c8b828c016126b3565b975050604089013567ffffffffffffffff81111561293957600080fd5b6129458b828c016126f2565b9650965050606089013567ffffffffffffffff81111561296457600080fd5b6129708b828c016126f2565b9450945050608089013567ffffffffffffffff81111561298f57600080fd5b61299b8b828c0161277b565b92509250509295985092959890939650565b6000806000806000608086880312156129c557600080fd5b60006129d3888289016126b3565b95505060206129e4888289016126b3565b94505060406129f5888289016128a3565b935050606086013567ffffffffffffffff811115612a1257600080fd5b612a1e8882890161277b565b92509250509295509295909350565b60008060008060008060a08789031215612a4657600080fd5b6000612a5489828a016126b3565b9650506020612a6589828a016126b3565b9550506040612a7689828a016128a3565b9450506060612a8789828a016128a3565b935050608087013567ffffffffffffffff811115612aa457600080fd5b612ab089828a0161277b565b92509250509295509295509295565b600060208284031215612ad157600080fd5b600082013567ffffffffffffffff811115612aeb57600080fd5b612af7848285016126c8565b91505092915050565b600080600060608486031215612b1557600080fd5b600084013567ffffffffffffffff811115612b2f57600080fd5b612b3b868287016126c8565b9350506020612b4c868287016128a3565b925050604084013567ffffffffffffffff811115612b6957600080fd5b612b75868287016127c5565b9150509250925092565b600060208284031215612b9157600080fd5b6000612b9f84828501612751565b91505092915050565b600080600060408486031215612bbd57600080fd5b6000612bcb86828701612751565b935050602084013567ffffffffffffffff811115612be857600080fd5b612bf48682870161277b565b92509250509250925092565b600060208284031215612c1257600080fd5b6000612c2084828501612766565b91505092915050565b60008060408385031215612c3c57600080fd5b6000612c4a85828601612766565b9250506020612c5b858286016126b3565b9150509250929050565b60008060008060408587031215612c7b57600080fd5b600085013567ffffffffffffffff811115612c9557600080fd5b612ca18782880161277b565b9450945050602085013567ffffffffffffffff811115612cc057600080fd5b612ccc8782880161277b565b925092505092959194509250565b600060208284031215612cec57600080fd5b600082013567ffffffffffffffff811115612d0657600080fd5b612d12848285016127c5565b91505092915050565b600060208284031215612d2d57600080fd5b6000612d3b848285016128a3565b91505092915050565b6000612d508383613016565b905092915050565b612d6181613388565b82525050565b612d7081613388565b82525050565b6000612d8182613316565b612d8b8185613339565b935083602082028501612d9d85613306565b8060005b85811015612dd95784840389528151612dba8582612d44565b9450612dc58361332c565b925060208a01995050600181019050612da1565b50829750879550505050505092915050565b612df48161339a565b82525050565b612e038161339a565b82525050565b612e12816133a6565b82525050565b612e21816133b0565b82525050565b6000612e3282613321565b612e3c818561334a565b9350612e4c818560208601613415565b612e558161344a565b840191505092915050565b6000612e6b82613321565b612e75818561335b565b9350612e85818560208601613415565b612e8e8161344a565b840191505092915050565b6000612ea482613321565b612eae818561336c565b9350612ebe818560208601613415565b80840191505092915050565b6000612ed7601f83613377565b91507f4d61696e4d6f64756c65235f617574683a20494e56414c49445f4e4f4e4345006000830152602082019050919050565b6000612f17602483613377565b91507f4d6f64756c6543616c6c73235f657865637574653a204e4f545f454e4f55474860008301527f5f474153000000000000000000000000000000000000000000000000000000006020830152604082019050919050565b6000612f7d602683613377565b91507f4d6f64756c6543616c6c7323657865637574653a20494e56414c49445f53494760008301527f4e415455524500000000000000000000000000000000000000000000000000006020830152604082019050919050565b6000612fe3600583613377565b91507f73656c663a0000000000000000000000000000000000000000000000000000006000830152602082019050919050565b600060c08301600083015161302e6000860182612deb565b5060208301516130416020860182612deb565b506040830151613054604086018261309f565b5060608301516130676060860182612d58565b50608083015161307a608086018261309f565b5060a083015184820360a08601526130928282612e27565b9150508091505092915050565b6130a8816133fc565b82525050565b6130b7816133fc565b82525050565b60006130c98284612e99565b915081905092915050565b60006020820190506130e96000830184612d67565b92915050565b60006020820190506131046000830184612dfa565b92915050565b600060208201905061311f6000830184612e09565b92915050565b600060408201905061313a6000830185612e09565b818103602083015261314c8184612e60565b90509392505050565b600060208201905061316a6000830184612e18565b92915050565b6000602082019050818103600083015261318981612eca565b9050919050565b600060208201905081810360008301526131a981612f0a565b9050919050565b600060208201905081810360008301526131c981612f70565b9050919050565b600060408201905081810360008301526131e981612fd6565b905081810360208301526131fd8184612d76565b905092915050565b600060208201905061321a60008301846130ae565b92915050565b600060408201905061323560008301856130ae565b81810360208301526132478184612d76565b90509392505050565b600060408201905061326560008301856130ae565b61327260208301846130ae565b9392505050565b6000604051905081810181811067ffffffffffffffff821117156132a05761329f613448565b5b8060405250919050565b600067ffffffffffffffff8211156132c5576132c4613448565b5b602082029050602081019050919050565b600067ffffffffffffffff8211156132f1576132f0613448565b5b601f19601f8301169050602081019050919050565b6000819050602082019050919050565b600081519050919050565b600081519050919050565b6000602082019050919050565b600082825260208201905092915050565b600082825260208201905092915050565b600082825260208201905092915050565b600081905092915050565b600082825260208201905092915050565b6000613393826133dc565b9050919050565b60008115159050919050565b6000819050919050565b60007fffffffff0000000000000000000000000000000000000000000000000000000082169050919050565b600073ffffffffffffffffffffffffffffffffffffffff82169050919050565b6000819050919050565b82818337600083830152505050565b60005b83811015613433578082015181840152602081019050613418565b83811115613442576000848401525b50505050565bfe5b6000601f19601f8301169050919050565b61346481613388565b811461346f57600080fd5b50565b61347b8161339a565b811461348657600080fd5b50565b613492816133a6565b811461349d57600080fd5b50565b6134a9816133b0565b81146134b457600080fd5b50565b6134c0816133fc565b81146134cb57600080fd5b5056fe5369676e617475726556616c696461746f72237265636f7665725369676e65723a20696e76616c6964207369676e6174757265202773272076616c75655369676e617475726556616c696461746f72237265636f7665725369676e65723a20696e76616c6964207369676e6174757265206c656e6774684d6f64756c6541757468235f7369676e617475726556616c69646174696f6e20494e56414c49445f464c41474d6f64756c654175746855706772616461626c6523757064617465496d6167654861736820494e56414c49445f494d4147455f484153484d6f64756c65486f6f6b732372656d6f7665486f6f6b3a20484f4f4b5f4e4f545f524547495354455245444c696242797465732372656164416464726573733a204f55545f4f465f424f554e44534c696242797465732372656164466972737455696e7431363a204f55545f4f465f424f554e44535369676e617475726556616c696461746f72237265636f7665725369676e65723a20696e76616c6964207369676e6174757265202776272076616c75655369676e617475726556616c696461746f72237265636f7665725369676e65723a20494e56414c49445f5349474e45524d6f64756c6541757468235f7369676e617475726556616c69646174696f6e3a20494e56414c49445f5349474e41545552454d6f64756c65486f6f6b7323616464486f6f6b3a20484f4f4b5f414c52454144595f524547495354455245445369676e617475726556616c696461746f7223697356616c69645369676e61747572653a20554e535550504f525445445f5349474e41545552455f545950454c696242797465732372656164427974657336363a204f55545f4f465f424f554e44534d6f64756c6555706461746523757064617465496d706c656d656e746174696f6e3a20494e56414c49445f494d504c454d454e544154494f4e5369676e617475726556616c696461746f72237265636f7665725369676e65723a20554e535550504f525445445f5349474e41545552455f545950454c69624279746573237265616455696e743855696e74383a204f55545f4f465f424f554e44534c69624279746573237265616442797465733a204f55545f4f465f424f554e44534c69624279746573237265616455696e7431363a204f55545f4f465f424f554e44534c696242797465732372656164427974657333323a20475245415445525f4f525f455155414c5f544f5f33325f4c454e4754485f52455155495245444d6f64756c6553656c6641757468236f6e6c7953656c663a204e4f545f415554484f52495a4544a26469706673582212203afcd0b303aaaa354ff1f0c1ef6fdf445783406046923b24603615c6dc9f770864736f6c63430007060033",
  "linkReferences": {},
  "deployedLinkReferences": {}
}