{
  "_format": "hh-sol-artifact-1",
  "contractName": "MainModule",
  "sourceName": "contracts/modules/MainModule.sol",
  "abi": [
    {
      "inputs": [
        {
          "internalType": "address",
          "name": "_factory",
          "type": "address"
        }
      ],
      "stateMutability": "nonpayable",
      "type": "constructor"
    },
    {
      "anonymous": false,
      "inputs": [
        {
          "indexed": false,
          "internalType": "address",
          "name": "_contract",
          "type": "address"
        }
      ],
      "name": "CreatedContract",
      "type": "event"
    },
    {
      "anonymous": false,
      "inputs": [
        {
          "indexed": false,
          "internalType": "address",
          "name": "newImplementation",
          "type": "address"
        }
      ],
      "name": "ImplementationUpdated",
      "type": "event"
    },
    {
      "anonymous": false,
      "inputs": [
        {
          "indexed": false,
          "internalType": "uint256",
          "name": "_space",
          "type": "uint256"
        },
        {
          "indexed": false,
          "internalType": "uint256",
          "name": "_newNonce",
          "type": "uint256"
        }
      ],
      "name": "NonceChange",
      "type": "event"
    },
    {
      "anonymous": true,
      "inputs": [
        {
          "indexed": false,
          "internalType": "bytes32",
          "name": "_tx",
          "type": "bytes32"
        }
      ],
      "name": "TxExecuted",
      "type": "event"
    },
    {
      "anonymous": false,
      "inputs": [
        {
          "indexed": false,
          "internalType": "bytes32",
          "name": "_tx",
          "type": "bytes32"
        },
        {
          "indexed": false,
          "internalType": "bytes",
          "name": "_reason",
          "type": "bytes"
        }
      ],
      "name": "TxFailed",
      "type": "event"
    },
    {
      "stateMutability": "payable",
      "type": "fallback"
    },
    {
      "inputs": [],
      "name": "FACTORY",
      "outputs": [
        {
          "internalType": "address",
          "name": "",
          "type": "address"
        }
      ],
      "stateMutability": "view",
      "type": "function"
    },
    {
      "inputs": [],
      "name": "INIT_CODE_HASH",
      "outputs": [
        {
          "internalType": "bytes32",
          "name": "",
          "type": "bytes32"
        }
      ],
      "stateMutability": "view",
      "type": "function"
    },
    {
      "inputs": [
        {
          "internalType": "bytes4",
          "name": "_signature",
          "type": "bytes4"
        },
        {
          "internalType": "address",
          "name": "_implementation",
          "type": "address"
        }
      ],
      "name": "addHook",
      "outputs": [],
      "stateMutability": "nonpayable",
      "type": "function"
    },
    {
      "inputs": [
        {
          "internalType": "bytes",
          "name": "_code",
          "type": "bytes"
        }
      ],
      "name": "createContract",
      "outputs": [
        {
          "internalType": "address",
          "name": "addr",
          "type": "address"
        }
      ],
      "stateMutability": "payable",
      "type": "function"
    },
    {
      "inputs": [
        {
          "components": [
            {
              "internalType": "bool",
              "name": "delegateCall",
              "type": "bool"
            },
            {
              "internalType": "bool",
              "name": "revertOnError",
              "type": "bool"
            },
            {
              "internalType": "uint256",
              "name": "gasLimit",
              "type": "uint256"
            },
            {
              "internalType": "address",
              "name": "target",
              "type": "address"
            },
            {
              "internalType": "uint256",
              "name": "value",
              "type": "uint256"
            },
            {
              "internalType": "bytes",
              "name": "data",
              "type": "bytes"
            }
          ],
          "internalType": "struct IModuleCalls.Transaction[]",
          "name": "_txs",
          "type": "tuple[]"
        },
        {
          "internalType": "uint256",
          "name": "_nonce",
          "type": "uint256"
        },
        {
          "internalType": "bytes",
          "name": "_signature",
          "type": "bytes"
        }
      ],
      "name": "execute",
      "outputs": [],
      "stateMutability": "nonpayable",
      "type": "function"
    },
    {
      "inputs": [
        {
          "internalType": "bytes32",
          "name": "_hash",
          "type": "bytes32"
        },
        {
          "internalType": "bytes",
          "name": "_signatures",
          "type": "bytes"
        }
      ],
      "name": "isValidSignature",
      "outputs": [
        {
          "internalType": "bytes4",
          "name": "",
          "type": "bytes4"
        }
      ],
      "stateMutability": "view",
      "type": "function"
    },
    {
      "inputs": [
        {
          "internalType": "bytes",
          "name": "_data",
          "type": "bytes"
        },
        {
          "internalType": "bytes",
          "name": "_signatures",
          "type": "bytes"
        }
      ],
      "name": "isValidSignature",
      "outputs": [
        {
          "internalType": "bytes4",
          "name": "",
          "type": "bytes4"
        }
      ],
      "stateMutability": "view",
      "type": "function"
    },
    {
      "inputs": [],
      "name": "nonce",
      "outputs": [
        {
          "internalType": "uint256",
          "name": "",
          "type": "uint256"
        }
      ],
      "stateMutability": "view",
      "type": "function"
    },
    {
      "inputs": [
        {
          "internalType": "address",
          "name": "",
          "type": "address"
        },
        {
          "internalType": "address",
          "name": "",
          "type": "address"
        },
        {
          "internalType": "uint256[]",
          "name": "",
          "type": "uint256[]"
        },
        {
          "internalType": "uint256[]",
          "name": "",
          "type": "uint256[]"
        },
        {
          "internalType": "bytes",
          "name": "",
          "type": "bytes"
        }
      ],
      "name": "onERC1155BatchReceived",
      "outputs": [
        {
          "internalType": "bytes4",
          "name": "",
          "type": "bytes4"
        }
      ],
      "stateMutability": "nonpayable",
      "type": "function"
    },
    {
      "inputs": [
        {
          "internalType": "address",
          "name": "",
          "type": "address"
        },
        {
          "internalType": "address",
          "name": "",
          "type": "address"
        },
        {
          "internalType": "uint256",
          "name": "",
          "type": "uint256"
        },
        {
          "internalType": "uint256",
          "name": "",
          "type": "uint256"
        },
        {
          "internalType": "bytes",
          "name": "",
          "type": "bytes"
        }
      ],
      "name": "onERC1155Received",
      "outputs": [
        {
          "internalType": "bytes4",
          "name": "",
          "type": "bytes4"
        }
      ],
      "stateMutability": "nonpayable",
      "type": "function"
    },
    {
      "inputs": [
        {
          "internalType": "address",
          "name": "",
          "type": "address"
        },
        {
          "internalType": "address",
          "name": "",
          "type": "address"
        },
        {
          "internalType": "uint256",
          "name": "",
          "type": "uint256"
        },
        {
          "internalType": "bytes",
          "name": "",
          "type": "bytes"
        }
      ],
      "name": "onERC721Received",
      "outputs": [
        {
          "internalType": "bytes4",
          "name": "",
          "type": "bytes4"
        }
      ],
      "stateMutability": "nonpayable",
      "type": "function"
    },
    {
      "inputs": [
        {
          "internalType": "bytes4",
          "name": "_signature",
          "type": "bytes4"
        }
      ],
      "name": "readHook",
      "outputs": [
        {
          "internalType": "address",
          "name": "",
          "type": "address"
        }
      ],
      "stateMutability": "view",
      "type": "function"
    },
    {
      "inputs": [
        {
          "internalType": "uint256",
          "name": "_space",
          "type": "uint256"
        }
      ],
      "name": "readNonce",
      "outputs": [
        {
          "internalType": "uint256",
          "name": "",
          "type": "uint256"
        }
      ],
      "stateMutability": "view",
      "type": "function"
    },
    {
      "inputs": [
        {
          "internalType": "bytes4",
          "name": "_signature",
          "type": "bytes4"
        }
      ],
      "name": "removeHook",
      "outputs": [],
      "stateMutability": "nonpayable",
      "type": "function"
    },
    {
      "inputs": [
        {
          "components": [
            {
              "internalType": "bool",
              "name": "delegateCall",
              "type": "bool"
            },
            {
              "internalType": "bool",
              "name": "revertOnError",
              "type": "bool"
            },
            {
              "internalType": "uint256",
              "name": "gasLimit",
              "type": "uint256"
            },
            {
              "internalType": "address",
              "name": "target",
              "type": "address"
            },
            {
              "internalType": "uint256",
              "name": "value",
              "type": "uint256"
            },
            {
              "internalType": "bytes",
              "name": "data",
              "type": "bytes"
            }
          ],
          "internalType": "struct IModuleCalls.Transaction[]",
          "name": "_txs",
          "type": "tuple[]"
        }
      ],
      "name": "selfExecute",
      "outputs": [],
      "stateMutability": "nonpayable",
      "type": "function"
    },
    {
      "inputs": [
        {
          "internalType": "bytes4",
          "name": "_interfaceID",
          "type": "bytes4"
        }
      ],
      "name": "supportsInterface",
      "outputs": [
        {
          "internalType": "bool",
          "name": "",
          "type": "bool"
        }
      ],
      "stateMutability": "pure",
      "type": "function"
    },
    {
      "inputs": [
        {
          "internalType": "address",
          "name": "_implementation",
          "type": "address"
        }
      ],
      "name": "updateImplementation",
      "outputs": [],
      "stateMutability": "nonpayable",
      "type": "function"
    },
    {
      "stateMutability": "payable",
      "type": "receive"
    }
  ],
  "bytecode": "0x60c06040523480156200001157600080fd5b506040516200397a3803806200397a833981810160405281019062000037919062000146565b80600060405180608001604052806043815260200162003937604391393073ffffffffffffffffffffffffffffffffffffffff166040516020018083805190602001908083835b60208310620000a357805182526020820191506020810190506020830392506200007e565b6001836020036101000a0380198251168184511680821785525050505050509050018281526020019250505060405160208183030381529060405280519060200120905080608081815250508173ffffffffffffffffffffffffffffffffffffffff1660a08173ffffffffffffffffffffffffffffffffffffffff1660601b81525050505050620001c0565b6000815190506200014081620001a6565b92915050565b6000602082840312156200015957600080fd5b600062000169848285016200012f565b91505092915050565b60006200017f8262000186565b9050919050565b600073ffffffffffffffffffffffffffffffffffffffff82169050919050565b620001b18162000172565b8114620001bd57600080fd5b50565b60805160a05160601c613746620001f160003980610880528061221052508061085c528061223252506137466000f3fe6080604052600436106101025760003560e01c80634fcf3eca1161009557806390042baf1161006457806390042baf14610465578063affed0e014610495578063b93ea7ad146104c0578063bc197c81146104e9578063f23a6e611461052657610109565b80634fcf3eca146103ad57806361c2926c146103d65780637a9a1628146103ff5780638c3f55631461042857610109565b80631a9b2337116100d15780631a9b2337146102dd57806320c13b0b1461031a578063257671f5146103575780632dd310001461038257610109565b806301ffc9a7146101fd578063025b22bc1461023a578063150b7a02146102635780631626ba7e146102a057610109565b3661010957005b60006101386000357fffffffff0000000000000000000000000000000000000000000000000000000016610563565b9050600073ffffffffffffffffffffffffffffffffffffffff168173ffffffffffffffffffffffffffffffffffffffff16146101fa576000808273ffffffffffffffffffffffffffffffffffffffff16600036604051808383808284378083019250505092505050600060405180830381855af49150503d80600081146101db576040519150601f19603f3d011682016040523d82523d6000602084013e6101e0565b606091505b5091509150816101f257805160208201fd5b805160208201f35b50005b34801561020957600080fd5b50610224600480360381019061021f9190612abc565b6105bb565b6040516102319190612fab565b60405180910390f35b34801561024657600080fd5b50610261600480360381019061025c919061279d565b6105cd565b005b34801561026f57600080fd5b5061028a60048036038101906102859190612892565b61071e565b6040516102979190613011565b60405180910390f35b3480156102ac57600080fd5b506102c760048036038101906102c29190612a64565b610733565b6040516102d49190613011565b60405180910390f35b3480156102e957600080fd5b5061030460048036038101906102ff9190612abc565b6107ae565b6040516103119190612f90565b60405180910390f35b34801561032657600080fd5b50610341600480360381019061033c9190612b21565b6107c0565b60405161034e9190613011565b60405180910390f35b34801561036357600080fd5b5061036c61085a565b6040516103799190612fc6565b60405180910390f35b34801561038e57600080fd5b5061039761087e565b6040516103a49190612f90565b60405180910390f35b3480156103b957600080fd5b506103d460048036038101906103cf9190612abc565b6108a2565b005b3480156103e257600080fd5b506103fd60048036038101906103f891906129a4565b6109c2565b005b34801561040b57600080fd5b50610426600480360381019061042191906129e5565b610a87565b005b34801561043457600080fd5b5061044f600480360381019061044a9190612bd7565b610b1e565b60405161045c91906130c1565b60405180910390f35b61047f600480360381019061047a9190612b96565b610b5a565b60405161048c9190612f90565b60405180910390f35b3480156104a157600080fd5b506104aa610c3c565b6040516104b791906130c1565b60405180910390f35b3480156104cc57600080fd5b506104e760048036038101906104e29190612ae5565b610c4d565b005b3480156104f557600080fd5b50610510600480360381019061050b91906127c6565b610d6c565b60405161051d9190613011565b60405180910390f35b34801561053257600080fd5b5061054d60048036038101906105489190612912565b610d84565b60405161055a9190613011565b60405180910390f35b60006105b17fbe27a319efc8734e89e26ba4bc95f5c788584163b959f03fa04e2d7ab4b9a12060001b837bffffffffffffffffffffffffffffffffffffffffffffffffffffffff1916610d9a565b60001c9050919050565b60006105c682610dd9565b9050919050565b3073ffffffffffffffffffffffffffffffffffffffff163373ffffffffffffffffffffffffffffffffffffffff1614610651576040517f08c379a00000000000000000000000000000000000000000000000000000000081526004018080602001828103825260278152602001806136ea6027913960400191505060405180910390fd5b6106708173ffffffffffffffffffffffffffffffffffffffff16610e5b565b6106c5576040517f08c379a00000000000000000000000000000000000000000000000000000000081526004018080602001828103825260398152602001806135d06039913960400191505060405180910390fd5b6106ce81610e6f565b7f310ba5f1d2ed074b51e2eccd052a47ae9ab7c6b800d1fca3db3999d6a592ca0381604051808273ffffffffffffffffffffffffffffffffffffffff16815260200191505060405180910390a150565b600063150b7a0260e01b905095945050505050565b600061078b61074185610e75565b84848080601f016020809104026020016040519081016040528093929190818152602001838380828437600081840152601f19601f82011690508083019250505050505050610efb565b1561079f57631626ba7e60e01b90506107a7565b600060e01b90505b9392505050565b60006107b982610563565b9050919050565b60006108366107ec86866040518083838082843780830192505050925050506040518091039020610e75565b84848080601f016020809104026020016040519081016040528093929190818152602001838380828437600081840152601f19601f82011690508083019250505050505050610efb565b1561084a576320c13b0b60e01b9050610852565b600060e01b90505b949350505050565b7f000000000000000000000000000000000000000000000000000000000000000081565b7f000000000000000000000000000000000000000000000000000000000000000081565b3073ffffffffffffffffffffffffffffffffffffffff163373ffffffffffffffffffffffffffffffffffffffff1614610926576040517f08c379a00000000000000000000000000000000000000000000000000000000081526004018080602001828103825260278152602001806136ea6027913960400191505060405180910390fd5b600073ffffffffffffffffffffffffffffffffffffffff1661094782610563565b73ffffffffffffffffffffffffffffffffffffffff1614156109b4576040517f08c379a000000000000000000000000000000000000000000000000000000000815260040180806020018281038252602b81526020018061342e602b913960400191505060405180910390fd5b6109bf816000610f16565b50565b3073ffffffffffffffffffffffffffffffffffffffff163373ffffffffffffffffffffffffffffffffffffffff1614610a46576040517f08c379a00000000000000000000000000000000000000000000000000000000081526004018080602001828103825260278152602001806136ea6027913960400191505060405180910390fd5b6000610a7782604051602001610a5c919061308c565b60405160208183030381529060405280519060200120610e75565b9050610a838183610f80565b5050565b610a9082611167565b6000610ac38385604051602001610aa89291906130dc565b60405160208183030381529060405280519060200120610e75565b9050610acf8183611218565b610b0e576040517f08c379a0000000000000000000000000000000000000000000000000000000008152600401610b059061306c565b60405180910390fd5b610b188185610f80565b50505050565b6000610b507f8d0bf1fd623d628c741362c1289948e57b3e2905218c676d3e69abee36d6ae2e60001b8360001b610d9a565b60001c9050919050565b60003073ffffffffffffffffffffffffffffffffffffffff163373ffffffffffffffffffffffffffffffffffffffff1614610be0576040517f08c379a00000000000000000000000000000000000000000000000000000000081526004018080602001828103825260278152602001806136ea6027913960400191505060405180910390fd5b81516020830134f090507fa506ad4e7f05eceba62a023c3219e5bd98a615f4fa87e2afb08a2da5cf62bf0c81604051808273ffffffffffffffffffffffffffffffffffffffff16815260200191505060405180910390a1919050565b6000610c486000610b1e565b905090565b3073ffffffffffffffffffffffffffffffffffffffff163373ffffffffffffffffffffffffffffffffffffffff1614610cd1576040517f08c379a00000000000000000000000000000000000000000000000000000000081526004018080602001828103825260278152602001806136ea6027913960400191505060405180910390fd5b600073ffffffffffffffffffffffffffffffffffffffff16610cf283610563565b73ffffffffffffffffffffffffffffffffffffffff1614610d5e576040517f08c379a000000000000000000000000000000000000000000000000000000000815260040180806020018281038252602c815260200180613542602c913960400191505060405180910390fd5b610d688282610f16565b5050565b600063bc197c8160e01b905098975050505050505050565b600063f23a6e6160e01b90509695505050505050565b60008083836040516020018083815260200182815260200192505050604051602081830303815290604052805190602001209050805491505092915050565b60007f90042baf000000000000000000000000000000000000000000000000000000007bffffffffffffffffffffffffffffffffffffffffffffffffffffffff1916827bffffffffffffffffffffffffffffffffffffffffffffffffffffffff19161415610e4a5760019050610e56565b610e538261124a565b90505b919050565b600080823b90506000811415915050919050565b80305550565b60008046905080308460405160200180807f19010000000000000000000000000000000000000000000000000000000000008152506002018481526020018373ffffffffffffffffffffffffffffffffffffffff1660601b8152601401828152602001935050505060405160208183030381529060405280519060200120915050919050565b600080610f088484611404565b505090508091505092915050565b610f7c7fbe27a319efc8734e89e26ba4bc95f5c788584163b959f03fa04e2d7ab4b9a12060001b837bffffffffffffffffffffffffffffffffffffffffffffffffffffffff19168373ffffffffffffffffffffffffffffffffffffffff1660001b61167a565b5050565b60005b8151811015611162576000828281518110610f9a57fe5b602002602001015190506000606082604001515a1015610fef576040517f08c379a0000000000000000000000000000000000000000000000000000000008152600401610fe69061304c565b60405180910390fd5b82600001511561108d57826060015173ffffffffffffffffffffffffffffffffffffffff16600084604001511461102a57836040015161102c565b5a5b8460a0015160405161103e9190612f79565b6000604051808303818686f4925050503d806000811461107a576040519150601f19603f3d011682016040523d82523d6000602084013e61107f565b606091505b508092508193505050611125565b826060015173ffffffffffffffffffffffffffffffffffffffff16836080015160008560400151146110c35784604001516110c5565b5a5b908560a001516040516110d89190612f79565b600060405180830381858888f193505050503d8060008114611116576040519150601f19603f3d011682016040523d82523d6000602084013e61111b565b606091505b5080925081935050505b811561114657856040516111399190612fc6565b60405180910390a0611152565b6111518387836116b6565b5b5050508080600101915050610f83565b505050565b60008061117383611706565b91509150600061118283610b1e565b90508082146111c6576040517f08c379a00000000000000000000000000000000000000000000000000000000081526004016111bd9061302c565b60405180910390fd5b60006001830190506111d8848261172b565b7f1f180c27086c7a39ea2a7b25239d1ab92348f07ca7bb59d1438fcf527568f881848260405161120992919061310c565b60405180910390a15050505050565b6000806000806112288686611404565b925092509250811561123e5761123d81611763565b5b82935050505092915050565b60007fec6aba50000000000000000000000000000000000000000000000000000000007bffffffffffffffffffffffffffffffffffffffffffffffffffffffff1916827bffffffffffffffffffffffffffffffffffffffffffffffffffffffff1916148061131557507f4e2312e0000000000000000000000000000000000000000000000000000000007bffffffffffffffffffffffffffffffffffffffffffffffffffffffff1916827bffffffffffffffffffffffffffffffffffffffffffffffffffffffff1916145b8061137d57507f150b7a02000000000000000000000000000000000000000000000000000000007bffffffffffffffffffffffffffffffffffffffffffffffffffffffff1916827bffffffffffffffffffffffffffffffffffffffffffffffffffffffff1916145b806113e557507fc0ee0b8a000000000000000000000000000000000000000000000000000000007bffffffffffffffffffffffffffffffffffffffffffffffffffffffff1916827bffffffffffffffffffffffffffffffffffffffffffffffffffffffff1916145b156113f357600190506113ff565b6113fc82611766565b90505b919050565b6000806000806000611415866117e8565b9150915060008261ffff1660001b905060005b8751831015611644576000806000611449868c61185b90919063ffffffff16565b8260ff1692508160ff169150809850819450829550505050600183141561148a5761147d868c6118e790919063ffffffff16565b80975081925050506115ed565b60008314156114c75760606114a8878d61197e90919063ffffffff16565b80985081925050506114ba8d82611a62565b91508285019450506115ec565b600283141561159a576114e3868c6118e790919063ffffffff16565b80975081925050506000611500878d611e3490919063ffffffff16565b8161ffff1691508098508192505050606061152688838f611eb99092919063ffffffff16565b80995081925050506115398e8483611fbc565b61158e576040517f08c379a00000000000000000000000000000000000000000000000000000000081526004018080602001828103825260328152602001806135106032913960400191505060405180910390fd5b838601955050506115eb565b6040517f08c379a000000000000000000000000000000000000000000000000000000000815260040180806020018281038252602c815260200180613402602c913960400191505060405180910390fd5b5b5b848282604051602001808481526020018381526020018273ffffffffffffffffffffffffffffffffffffffff1681526020019350505050604051602081830303815290604052805190602001209450505050611428565b600080611650846121ef565b915091508561ffff1683101580156116655750815b81859850985098505050505050509250925092565b60008383604051602001808381526020018281526020019250505060405160208183030381529060405280519060200120905081815550505050565b8260200151156116c857805160208201fd5b7f3dbd1590ea96dd3253a91f24e64e3a502e1225d602a5731357bc12643070ccd782826040516116f9929190612fe1565b60405180910390a1505050565b600080600160606001901b0360001b8360001b1660001c9050606083901c9150915091565b61175f7f8d0bf1fd623d628c741362c1289948e57b3e2905218c676d3e69abee36d6ae2e60001b8360001b8360001b61167a565b5050565b50565b60007f025b22bc000000000000000000000000000000000000000000000000000000007bffffffffffffffffffffffffffffffffffffffffffffffffffffffff1916827bffffffffffffffffffffffffffffffffffffffffffffffffffffffff191614156117d757600190506117e3565b6117e0826122ec565b90505b919050565b60008082602001518060f01c92506002915050825160021115611856576040517f08c379a000000000000000000000000000000000000000000000000000000000815260040180806020018281038252602781526020018061347c6027913960400191505060405180910390fd5b915091565b6000806000846020018401518060f81c935060ff8160f01c1692506002850191505083811161188657fe5b84518111156118e0576040517f08c379a00000000000000000000000000000000000000000000000000000000081526004018080602001828103825260268152602001806136456026913960400191505060405180910390fd5b9250925092565b6000808360200183015173ffffffffffffffffffffffffffffffffffffffff8160601c1692506014840191505082811161191d57fe5b8351811115611977576040517f08c379a00000000000000000000000000000000000000000000000000000000081526004018080602001828103825260238152602001806134596023913960400191505060405180910390fd5b9250929050565b60606000604267ffffffffffffffff8111801561199a57600080fd5b506040519080825280601f01601f1916602001820160405280156119cd5781602001600182028036833780820191505090505b50915082840160200180516020840152602081015160408401526022810151604284015260428401915050828111611a0157fe5b8351811115611a5b576040517f08c379a00000000000000000000000000000000000000000000000000000000081526004018080602001828103825260238152602001806135ad6023913960400191505060405180910390fd5b9250929050565b60006042825114611abe576040517f08c379a000000000000000000000000000000000000000000000000000000000815260040180806020018281038252603a8152602001806133c8603a913960400191505060405180910390fd5b600082600184510381518110611ad057fe5b602001015160f81c60f81b60f81c60ff169050600083604081518110611af257fe5b602001015160f81c60f81b60f81c90506000611b1860008661236e90919063ffffffff16565b90506000611b3060208761236e90919063ffffffff16565b90507f7fffffffffffffffffffffffffffffff5d576e7357a4501ddfe92f46681b20a08160001c1115611bae576040517f08c379a000000000000000000000000000000000000000000000000000000000815260040180806020018281038252603d81526020018061338b603d913960400191505060405180910390fd5b601b8360ff1614158015611bc65750601c8360ff1614155b15611c1c576040517f08c379a000000000000000000000000000000000000000000000000000000000815260040180806020018281038252603d8152602001806134a3603d913960400191505060405180910390fd5b6001841415611c905760018784848460405160008152602001604052604051808581526020018460ff1681526020018381526020018281526020019450505050506020604051602081039080840390855afa158015611c7f573d6000803e3d6000fd5b505050602060405103519450611da4565b6002841415611d525760018760405160200180807f19457468657265756d205369676e6564204d6573736167653a0a333200000000815250601c018281526020019150506040516020818303038152906040528051906020012084848460405160008152602001604052604051808581526020018460ff1681526020018381526020018281526020019450505050506020604051602081039080840390855afa158015611d41573d6000803e3d6000fd5b505050602060405103519450611da3565b6040517f08c379a000000000000000000000000000000000000000000000000000000000815260040180806020018281038252603c815260200180613609603c913960400191505060405180910390fd5b5b600073ffffffffffffffffffffffffffffffffffffffff168573ffffffffffffffffffffffffffffffffffffffff161415611e2a576040517f08c379a00000000000000000000000000000000000000000000000000000000081526004018080602001828103825260308152602001806134e06030913960400191505060405180910390fd5b5050505092915050565b6000808360200183015161ffff8160f01c16925060028401915050828111611e5857fe5b8351811115611eb2576040517f08c379a000000000000000000000000000000000000000000000000000000000815260040180806020018281038252602281526020018061368c6022913960400191505060405180910390fd5b9250929050565b606060008267ffffffffffffffff81118015611ed457600080fd5b506040519080825280601f01601f191660200182016040528015611f075781602001600182028036833780820191505090505b509150838501602001600060205b85811015611f33578183015181860152809150602081019050611f15565b856020018501805183850151838801528082528789019550505050505083811015611f5a57fe5b8451811115611fb4576040517f08c379a000000000000000000000000000000000000000000000000000000000815260040180806020018281038252602181526020018061366b6021913960400191505060405180910390fd5b935093915050565b60008082600184510381518110611fcf57fe5b602001015160f81c60f81b60f81c60ff1690506001811480611ff15750600281145b15612035578373ffffffffffffffffffffffffffffffffffffffff166120178685611a62565b73ffffffffffffffffffffffffffffffffffffffff161491506121e7565b6003811415612195576000835190506001810384528473ffffffffffffffffffffffffffffffffffffffff16631626ba7e87866040518363ffffffff1660e01b81526004018083815260200180602001828103825283818151815260200191508051906020019080838360005b838110156120bd5780820151818401526020810190506120a2565b50505050905090810190601f1680156120ea5780820380516001836020036101000a031916815260200191505b50935050505060206040518083038186803b15801561210857600080fd5b505afa15801561211c573d6000803e3d6000fd5b505050506040513d602081101561213257600080fd5b81019080805190602001909291905050507bffffffffffffffffffffffffffffffffffffffffffffffffffffffff1916631626ba7e60e01b7bffffffffffffffffffffffffffffffffffffffffffffffffffffffff1916149250808452506121e6565b6040517f08c379a000000000000000000000000000000000000000000000000000000000815260040180806020018281038252603f81526020018061356e603f913960400191505060405180910390fd5b5b509392505050565b6000803073ffffffffffffffffffffffffffffffffffffffff1660ff60f81b7f0000000000000000000000000000000000000000000000000000000000000000857f000000000000000000000000000000000000000000000000000000000000000060405160200180857effffffffffffffffffffffffffffffffffffffffffffffffffffffffffffff191681526001018473ffffffffffffffffffffffffffffffffffffffff1660601b81526014018381526020018281526020019450505050506040516020818303038152906040528051906020012060001c73ffffffffffffffffffffffffffffffffffffffff1614600091509150915091565b60007f389901c7000000000000000000000000000000000000000000000000000000007bffffffffffffffffffffffffffffffffffffffffffffffffffffffff1916827bffffffffffffffffffffffffffffffffffffffffffffffffffffffff1916141561235d5760019050612369565b612366826123e2565b90505b919050565b600060208201835110156123cd576040517f08c379a000000000000000000000000000000000000000000000000000000000815260040180806020018281038252603c8152602001806136ae603c913960400191505060405180910390fd5b60006020830190508084015191505092915050565b6000807bffffffffffffffffffffffffffffffffffffffffffffffffffffffff1916827bffffffffffffffffffffffffffffffffffffffffffffffffffffffff1916148061248d57507f36e78175000000000000000000000000000000000000000000000000000000007bffffffffffffffffffffffffffffffffffffffffffffffffffffffff1916827bffffffffffffffffffffffffffffffffffffffffffffffffffffffff1916145b1561249b57600190506124a7565b6124a4826124ac565b90505b919050565b60006301ffc9a760e01b7bffffffffffffffffffffffffffffffffffffffffffffffffffffffff1916827bffffffffffffffffffffffffffffffffffffffffffffffffffffffff1916149050919050565b600061251061250b84613166565b613135565b9050808382526020820190508260005b85811015612550578135850161253688826126d4565b845260208401935060208301925050600181019050612520565b5050509392505050565b600061256d61256884613192565b613135565b90508281526020810184848401111561258557600080fd5b6125908482856132c2565b509392505050565b6000813590506125a781613317565b92915050565b600082601f8301126125be57600080fd5b81356125ce8482602086016124fd565b91505092915050565b60008083601f8401126125e957600080fd5b8235905067ffffffffffffffff81111561260257600080fd5b60208301915083602082028301111561261a57600080fd5b9250929050565b6000813590506126308161332e565b92915050565b60008135905061264581613345565b92915050565b60008135905061265a8161335c565b92915050565b60008083601f84011261267257600080fd5b8235905067ffffffffffffffff81111561268b57600080fd5b6020830191508360018202830111156126a357600080fd5b9250929050565b600082601f8301126126bb57600080fd5b81356126cb84826020860161255a565b91505092915050565b600060c082840312156126e657600080fd5b6126f060c0613135565b9050600061270084828501612621565b600083015250602061271484828501612621565b602083015250604061272884828501612788565b604083015250606061273c84828501612598565b606083015250608061275084828501612788565b60808301525060a082013567ffffffffffffffff81111561277057600080fd5b61277c848285016126aa565b60a08301525092915050565b60008135905061279781613373565b92915050565b6000602082840312156127af57600080fd5b60006127bd84828501612598565b91505092915050565b60008060008060008060008060a0898b0312156127e257600080fd5b60006127f08b828c01612598565b98505060206128018b828c01612598565b975050604089013567ffffffffffffffff81111561281e57600080fd5b61282a8b828c016125d7565b9650965050606089013567ffffffffffffffff81111561284957600080fd5b6128558b828c016125d7565b9450945050608089013567ffffffffffffffff81111561287457600080fd5b6128808b828c01612660565b92509250509295985092959890939650565b6000806000806000608086880312156128aa57600080fd5b60006128b888828901612598565b95505060206128c988828901612598565b94505060406128da88828901612788565b935050606086013567ffffffffffffffff8111156128f757600080fd5b61290388828901612660565b92509250509295509295909350565b60008060008060008060a0878903121561292b57600080fd5b600061293989828a01612598565b965050602061294a89828a01612598565b955050604061295b89828a01612788565b945050606061296c89828a01612788565b935050608087013567ffffffffffffffff81111561298957600080fd5b61299589828a01612660565b92509250509295509295509295565b6000602082840312156129b657600080fd5b600082013567ffffffffffffffff8111156129d057600080fd5b6129dc848285016125ad565b91505092915050565b6000806000606084860312156129fa57600080fd5b600084013567ffffffffffffffff811115612a1457600080fd5b612a20868287016125ad565b9350506020612a3186828701612788565b925050604084013567ffffffffffffffff811115612a4e57600080fd5b612a5a868287016126aa565b9150509250925092565b600080600060408486031215612a7957600080fd5b6000612a8786828701612636565b935050602084013567ffffffffffffffff811115612aa457600080fd5b612ab086828701612660565b92509250509250925092565b600060208284031215612ace57600080fd5b6000612adc8482850161264b565b91505092915050565b60008060408385031215612af857600080fd5b6000612b068582860161264b565b9250506020612b1785828601612598565b9150509250929050565b60008060008060408587031215612b3757600080fd5b600085013567ffffffffffffffff811115612b5157600080fd5b612b5d87828801612660565b9450945050602085013567ffffffffffffffff811115612b7c57600080fd5b612b8887828801612660565b925092505092959194509250565b600060208284031215612ba857600080fd5b600082013567ffffffffffffffff811115612bc257600080fd5b612bce848285016126aa565b91505092915050565b600060208284031215612be957600080fd5b6000612bf784828501612788565b91505092915050565b6000612c0c8383612ed2565b905092915050565b612c1d81613244565b82525050565b612c2c81613244565b82525050565b6000612c3d826131d2565b612c4781856131f5565b935083602082028501612c59856131c2565b8060005b85811015612c955784840389528151612c768582612c00565b9450612c81836131e8565b925060208a01995050600181019050612c5d565b50829750879550505050505092915050565b612cb081613256565b82525050565b612cbf81613256565b82525050565b612cce81613262565b82525050565b612cdd8161326c565b82525050565b6000612cee826131dd565b612cf88185613206565b9350612d088185602086016132d1565b612d1181613306565b840191505092915050565b6000612d27826131dd565b612d318185613217565b9350612d418185602086016132d1565b612d4a81613306565b840191505092915050565b6000612d60826131dd565b612d6a8185613228565b9350612d7a8185602086016132d1565b80840191505092915050565b6000612d93601f83613233565b91507f4d61696e4d6f64756c65235f617574683a20494e56414c49445f4e4f4e4345006000830152602082019050919050565b6000612dd3602483613233565b91507f4d6f64756c6543616c6c73235f657865637574653a204e4f545f454e4f55474860008301527f5f474153000000000000000000000000000000000000000000000000000000006020830152604082019050919050565b6000612e39602683613233565b91507f4d6f64756c6543616c6c7323657865637574653a20494e56414c49445f53494760008301527f4e415455524500000000000000000000000000000000000000000000000000006020830152604082019050919050565b6000612e9f600583613233565b91507f73656c663a0000000000000000000000000000000000000000000000000000006000830152602082019050919050565b600060c083016000830151612eea6000860182612ca7565b506020830151612efd6020860182612ca7565b506040830151612f106040860182612f5b565b506060830151612f236060860182612c14565b506080830151612f366080860182612f5b565b5060a083015184820360a0860152612f4e8282612ce3565b9150508091505092915050565b612f64816132b8565b82525050565b612f73816132b8565b82525050565b6000612f858284612d55565b915081905092915050565b6000602082019050612fa56000830184612c23565b92915050565b6000602082019050612fc06000830184612cb6565b92915050565b6000602082019050612fdb6000830184612cc5565b92915050565b6000604082019050612ff66000830185612cc5565b81810360208301526130088184612d1c565b90509392505050565b60006020820190506130266000830184612cd4565b92915050565b6000602082019050818103600083015261304581612d86565b9050919050565b6000602082019050818103600083015261306581612dc6565b9050919050565b6000602082019050818103600083015261308581612e2c565b9050919050565b600060408201905081810360008301526130a581612e92565b905081810360208301526130b98184612c32565b905092915050565b60006020820190506130d66000830184612f6a565b92915050565b60006040820190506130f16000830185612f6a565b81810360208301526131038184612c32565b90509392505050565b60006040820190506131216000830185612f6a565b61312e6020830184612f6a565b9392505050565b6000604051905081810181811067ffffffffffffffff8211171561315c5761315b613304565b5b8060405250919050565b600067ffffffffffffffff82111561318157613180613304565b5b602082029050602081019050919050565b600067ffffffffffffffff8211156131ad576131ac613304565b5b601f19601f8301169050602081019050919050565b6000819050602082019050919050565b600081519050919050565b600081519050919050565b6000602082019050919050565b600082825260208201905092915050565b600082825260208201905092915050565b600082825260208201905092915050565b600081905092915050565b600082825260208201905092915050565b600061324f82613298565b9050919050565b60008115159050919050565b6000819050919050565b60007fffffffff0000000000000000000000000000000000000000000000000000000082169050919050565b600073ffffffffffffffffffffffffffffffffffffffff82169050919050565b6000819050919050565b82818337600083830152505050565b60005b838110156132ef5780820151818401526020810190506132d4565b838111156132fe576000848401525b50505050565bfe5b6000601f19601f8301169050919050565b61332081613244565b811461332b57600080fd5b50565b61333781613256565b811461334257600080fd5b50565b61334e81613262565b811461335957600080fd5b50565b6133658161326c565b811461337057600080fd5b50565b61337c816132b8565b811461338757600080fd5b5056fe5369676e617475726556616c696461746f72237265636f7665725369676e65723a20696e76616c6964207369676e6174757265202773272076616c75655369676e617475726556616c696461746f72237265636f7665725369676e65723a20696e76616c6964207369676e6174757265206c656e6774684d6f64756c6541757468235f7369676e617475726556616c69646174696f6e20494e56414c49445f464c41474d6f64756c65486f6f6b732372656d6f7665486f6f6b3a20484f4f4b5f4e4f545f524547495354455245444c696242797465732372656164416464726573733a204f55545f4f465f424f554e44534c696242797465732372656164466972737455696e7431363a204f55545f4f465f424f554e44535369676e617475726556616c696461746f72237265636f7665725369676e65723a20696e76616c6964207369676e6174757265202776272076616c75655369676e617475726556616c696461746f72237265636f7665725369676e65723a20494e56414c49445f5349474e45524d6f64756c6541757468235f7369676e617475726556616c69646174696f6e3a20494e56414c49445f5349474e41545552454d6f64756c65486f6f6b7323616464486f6f6b3a20484f4f4b5f414c52454144595f524547495354455245445369676e617475726556616c696461746f7223697356616c69645369676e61747572653a20554e535550504f525445445f5349474e41545552455f545950454c696242797465732372656164427974657336363a204f55545f4f465f424f554e44534d6f64756c6555706461746523757064617465496d706c656d656e746174696f6e3a20494e56414c49445f494d504c454d454e544154494f4e5369676e617475726556616c696461746f72237265636f7665725369676e65723a20554e535550504f525445445f5349474e41545552455f545950454c69624279746573237265616455696e743855696e74383a204f55545f4f465f424f554e44534c69624279746573237265616442797465733a204f55545f4f465f424f554e44534c69624279746573237265616455696e7431363a204f55545f4f465f424f554e44534c696242797465732372656164427974657333323a20475245415445525f4f525f455155414c5f544f5f33325f4c454e4754485f52455155495245444d6f64756c6553656c6641757468236f6e6c7953656c663a204e4f545f415554484f52495a4544a2646970667358221220aef8133e3c837d82ebb1a596f2479e09b7df933a0c70d95446223cd397eda6f464736f6c634300070600336054600f3d396034805130553df3fe63906111273d3560e01c14602b57363d3d373d3d3d3d369030545af43d82803e156027573d90f35b3d90fd5b30543d5260203df3",
  "linkReferences": {},
  "deployedLinkReferences": {}
}