{
  "abi": [
    {
      "inputs": [
        {
          "internalType": "address",
          "name": "owner",
          "type": "address"
        }
      ],
      "stateMutability": "nonpayable",
      "type": "constructor"
    },
    {
      "inputs": [],
      "name": "AlreadyDeployed",
      "type": "error"
    },
    {
      "inputs": [],
      "name": "DeployFailed",
      "type": "error"
    },
    {
      "inputs": [],
      "name": "DeployInitFailed",
      "type": "error"
    },
    {
      "inputs": [],
      "name": "EmptyBytecode",
      "type": "error"
    },
    {
      "inputs": [],
      "name": "NativeTransferFailed",
      "type": "error"
    },
    {
      "inputs": [
        {
          "internalType": "address",
          "name": "owner",
          "type": "address"
        }
      ],
      "name": "OwnableInvalidOwner",
      "type": "error"
    },
    {
      "inputs": [
        {
          "internalType": "address",
          "name": "account",
          "type": "address"
        }
      ],
      "name": "OwnableUnauthorizedAccount",
      "type": "error"
    },
    {
      "anonymous": false,
      "inputs": [
        {
          "indexed": true,
          "internalType": "address",
          "name": "deployedAddress",
          "type": "address"
        },
        {
          "indexed": true,
          "internalType": "address",
          "name": "sender",
          "type": "address"
        },
        {
          "indexed": true,
          "internalType": "bytes32",
          "name": "salt",
          "type": "bytes32"
        },
        {
          "indexed": false,
          "internalType": "bytes32",
          "name": "bytecodeHash",
          "type": "bytes32"
        }
      ],
      "name": "Deployed",
      "type": "event"
    },
    {
      "anonymous": false,
      "inputs": [
        {
          "indexed": true,
          "internalType": "address",
          "name": "previousOwner",
          "type": "address"
        },
        {
          "indexed": true,
          "internalType": "address",
          "name": "newOwner",
          "type": "address"
        }
      ],
      "name": "OwnershipTransferred",
      "type": "event"
    },
    {
      "inputs": [
        {
          "internalType": "bytes",
          "name": "bytecode",
          "type": "bytes"
        },
        {
          "internalType": "bytes32",
          "name": "salt",
          "type": "bytes32"
        }
      ],
      "name": "deploy",
      "outputs": [
        {
          "internalType": "address",
          "name": "deployedAddress_",
          "type": "address"
        }
      ],
      "stateMutability": "payable",
      "type": "function"
    },
    {
      "inputs": [
        {
          "internalType": "bytes",
          "name": "bytecode",
          "type": "bytes"
        },
        {
          "internalType": "bytes32",
          "name": "salt",
          "type": "bytes32"
        },
        {
          "internalType": "bytes",
          "name": "init",
          "type": "bytes"
        }
      ],
      "name": "deployAndInit",
      "outputs": [
        {
          "internalType": "address",
          "name": "deployedAddress_",
          "type": "address"
        }
      ],
      "stateMutability": "payable",
      "type": "function"
    },
    {
      "inputs": [
        {
          "internalType": "bytes",
          "name": "bytecode",
          "type": "bytes"
        },
        {
          "internalType": "address",
          "name": "sender",
          "type": "address"
        },
        {
          "internalType": "bytes32",
          "name": "salt",
          "type": "bytes32"
        }
      ],
      "name": "deployedAddress",
      "outputs": [
        {
          "internalType": "address",
          "name": "",
          "type": "address"
        }
      ],
      "stateMutability": "view",
      "type": "function"
    },
    {
      "inputs": [],
      "name": "owner",
      "outputs": [
        {
          "internalType": "address",
          "name": "",
          "type": "address"
        }
      ],
      "stateMutability": "view",
      "type": "function"
    },
    {
      "inputs": [],
      "name": "renounceOwnership",
      "outputs": [],
      "stateMutability": "nonpayable",
      "type": "function"
    },
    {
      "inputs": [
        {
          "internalType": "address",
          "name": "newOwner",
          "type": "address"
        }
      ],
      "name": "transferOwnership",
      "outputs": [],
      "stateMutability": "nonpayable",
      "type": "function"
    }
  ],
  "bytecode": {
    "object": "0x608060405234801561001057600080fd5b5060405161090e38038061090e83398101604081905261002f916100be565b806001600160a01b03811661005e57604051631e4fbdf760e01b81526000600482015260240160405180910390fd5b6100678161006e565b50506100ee565b600080546001600160a01b038381166001600160a01b0319831681178455604051919092169283917f8be0079c531659141344cd1fd0a4f28419497f9722a3daafe3b4186f6b6457e09190a35050565b6000602082840312156100d057600080fd5b81516001600160a01b03811681146100e757600080fd5b9392505050565b610811806100fd6000396000f3fe6080604052600436106100555760003560e01c80634af63f021461005a578063715018a6146100895780638da5cb5b146100a0578063c2b1041c146100be578063cf4d6432146100de578063f2fde38b146100f1575b600080fd5b61006d61006836600461065d565b610111565b6040516001600160a01b03909116815260200160405180910390f35b34801561009557600080fd5b5061009e6101ce565b005b3480156100ac57600080fd5b506000546001600160a01b031661006d565b3480156100ca57600080fd5b5061006d6100d93660046106be565b6101e2565b61006d6100ec366004610715565b61022e565b3480156100fd57600080fd5b5061009e61010c3660046107b0565b61036e565b60408051336020820152908101829052600090819060600160405160208183030381529060405280519060200120905061014b84826103b1565b91503415610166576101666001600160a01b038316346103c6565b61017084826103f7565b915082336001600160a01b0316836001600160a01b03167fd579261046780ec80c4dae1bc57abdb62c58df8af1531e63b4e8bcc08bcf46ec87805190602001206040516101bf91815260200190565b60405180910390a45092915050565b6101d661040b565b6101e06000610438565b565b604080516001600160a01b0384166020820152908101829052600090819060600160405160208183030381529060405280519060200120905061022585826103b1565b95945050505050565b60408051336020820152908101849052600090819060600160405160208183030381529060405280519060200120905061026886826103b1565b91503415610283576102836001600160a01b038316346103c6565b61028d86826103f7565b915084336001600160a01b0316836001600160a01b03167fd579261046780ec80c4dae1bc57abdb62c58df8af1531e63b4e8bcc08bcf46ec89805190602001206040516102dc91815260200190565b60405180910390a46000826001600160a01b031685856040516103009291906107cb565b6000604051808303816000865af19150503d806000811461033d576040519150601f19603f3d011682016040523d82523d6000602084013e610342565b606091505b50509050806103645760405163139c636760e01b815260040160405180910390fd5b5050949350505050565b61037661040b565b6001600160a01b0381166103a557604051631e4fbdf760e01b8152600060048201526024015b60405180910390fd5b6103ae81610438565b50565b60006103bd8383610488565b90505b92915050565b600080600080600085875af19050806103f257604051633d2cec6f60e21b815260040160405180910390fd5b505050565b600061040161040b565b6103bd83836104e4565b6000546001600160a01b031633146101e05760405163118cdaa760e01b815233600482015260240161039c565b600080546001600160a01b038381166001600160a01b0319831681178455604051919092169283917f8be0079c531659141344cd1fd0a4f28419497f9722a3daafe3b4186f6b6457e09190a35050565b8151602092830120604080516001600160f81b0319818601523060601b6bffffffffffffffffffffffff191660218201526035810193909352605580840192909252805180840390920182526075909201909152805191012090565b60006104f08383610488565b90508251600003610514576040516321744a5960e01b815260040160405180910390fd5b610526816001600160a01b0316610577565b156105445760405163a6ef0ba160e01b815260040160405180910390fd5b818351602085016000f590506001600160a01b0381166103c05760405163b4f5411160e01b815260040160405180910390fd5b60006001600160a01b0382163f80158015906105b357507fc5d2460186f7233c927e7db2dcc703c0e500b653ca82273b7bfad8045d85a4708114155b9392505050565b634e487b7160e01b600052604160045260246000fd5b600082601f8301126105e157600080fd5b813567ffffffffffffffff808211156105fc576105fc6105ba565b604051601f8301601f19908116603f01168101908282118183101715610624576106246105ba565b8160405283815286602085880101111561063d57600080fd5b836020870160208301376000602085830101528094505050505092915050565b6000806040838503121561067057600080fd5b823567ffffffffffffffff81111561068757600080fd5b610693858286016105d0565b95602094909401359450505050565b80356001600160a01b03811681146106b957600080fd5b919050565b6000806000606084860312156106d357600080fd5b833567ffffffffffffffff8111156106ea57600080fd5b6106f6868287016105d0565b935050610705602085016106a2565b9150604084013590509250925092565b6000806000806060858703121561072b57600080fd5b843567ffffffffffffffff8082111561074357600080fd5b61074f888389016105d0565b955060208701359450604087013591508082111561076c57600080fd5b818701915087601f83011261078057600080fd5b81358181111561078f57600080fd5b8860208285010111156107a157600080fd5b95989497505060200194505050565b6000602082840312156107c257600080fd5b6103bd826106a2565b818382376000910190815291905056fea26469706673582212205c9c681ecd6595a070bbd0db3c2888337fd0f85e039cacc3664dcfe181392a0164736f6c63430008140033",
    "linkReferences": {}
  },
  "methodIdentifiers": {
    "deploy(bytes,bytes32)": "4af63f02",
    "deployAndInit(bytes,bytes32,bytes)": "cf4d6432",
    "deployedAddress(bytes,address,bytes32)": "c2b1041c",
    "owner()": "8da5cb5b",
    "renounceOwnership()": "715018a6",
    "transferOwnership(address)": "f2fde38b"
  },
  "id": 41
}