{
  "_format": "hh-sol-artifact-1",
  "contractName": "GuestModule",
  "sourceName": "contracts/modules/GuestModule.sol",
  "abi": [
    {
      "anonymous": false,
      "inputs": [
        {
          "indexed": false,
          "internalType": "address",
          "name": "_contract",
          "type": "address"
        }
      ],
      "name": "CreatedContract",
      "type": "event"
    },
    {
      "anonymous": false,
      "inputs": [
        {
          "indexed": false,
          "internalType": "uint256",
          "name": "_space",
          "type": "uint256"
        },
        {
          "indexed": false,
          "internalType": "uint256",
          "name": "_newNonce",
          "type": "uint256"
        }
      ],
      "name": "NonceChange",
      "type": "event"
    },
    {
      "anonymous": true,
      "inputs": [
        {
          "indexed": false,
          "internalType": "bytes32",
          "name": "_tx",
          "type": "bytes32"
        }
      ],
      "name": "TxExecuted",
      "type": "event"
    },
    {
      "anonymous": false,
      "inputs": [
        {
          "indexed": false,
          "internalType": "bytes32",
          "name": "_tx",
          "type": "bytes32"
        },
        {
          "indexed": false,
          "internalType": "bytes",
          "name": "_reason",
          "type": "bytes"
        }
      ],
      "name": "TxFailed",
      "type": "event"
    },
    {
      "inputs": [
        {
          "internalType": "bytes",
          "name": "_code",
          "type": "bytes"
        }
      ],
      "name": "createContract",
      "outputs": [
        {
          "internalType": "address",
          "name": "addr",
          "type": "address"
        }
      ],
      "stateMutability": "payable",
      "type": "function"
    },
    {
      "inputs": [
        {
          "components": [
            {
              "internalType": "bool",
              "name": "delegateCall",
              "type": "bool"
            },
            {
              "internalType": "bool",
              "name": "revertOnError",
              "type": "bool"
            },
            {
              "internalType": "uint256",
              "name": "gasLimit",
              "type": "uint256"
            },
            {
              "internalType": "address",
              "name": "target",
              "type": "address"
            },
            {
              "internalType": "uint256",
              "name": "value",
              "type": "uint256"
            },
            {
              "internalType": "bytes",
              "name": "data",
              "type": "bytes"
            }
          ],
          "internalType": "struct IModuleCalls.Transaction[]",
          "name": "_txs",
          "type": "tuple[]"
        },
        {
          "internalType": "uint256",
          "name": "",
          "type": "uint256"
        },
        {
          "internalType": "bytes",
          "name": "",
          "type": "bytes"
        }
      ],
      "name": "execute",
      "outputs": [],
      "stateMutability": "nonpayable",
      "type": "function"
    },
    {
      "inputs": [
        {
          "internalType": "bytes32",
          "name": "_hash",
          "type": "bytes32"
        },
        {
          "internalType": "bytes",
          "name": "_signatures",
          "type": "bytes"
        }
      ],
      "name": "isValidSignature",
      "outputs": [
        {
          "internalType": "bytes4",
          "name": "",
          "type": "bytes4"
        }
      ],
      "stateMutability": "view",
      "type": "function"
    },
    {
      "inputs": [
        {
          "internalType": "bytes",
          "name": "_data",
          "type": "bytes"
        },
        {
          "internalType": "bytes",
          "name": "_signatures",
          "type": "bytes"
        }
      ],
      "name": "isValidSignature",
      "outputs": [
        {
          "internalType": "bytes4",
          "name": "",
          "type": "bytes4"
        }
      ],
      "stateMutability": "view",
      "type": "function"
    },
    {
      "inputs": [],
      "name": "nonce",
      "outputs": [
        {
          "internalType": "uint256",
          "name": "",
          "type": "uint256"
        }
      ],
      "stateMutability": "view",
      "type": "function"
    },
    {
      "inputs": [
        {
          "internalType": "uint256",
          "name": "_space",
          "type": "uint256"
        }
      ],
      "name": "readNonce",
      "outputs": [
        {
          "internalType": "uint256",
          "name": "",
          "type": "uint256"
        }
      ],
      "stateMutability": "view",
      "type": "function"
    },
    {
      "inputs": [
        {
          "components": [
            {
              "internalType": "bool",
              "name": "delegateCall",
              "type": "bool"
            },
            {
              "internalType": "bool",
              "name": "revertOnError",
              "type": "bool"
            },
            {
              "internalType": "uint256",
              "name": "gasLimit",
              "type": "uint256"
            },
            {
              "internalType": "address",
              "name": "target",
              "type": "address"
            },
            {
              "internalType": "uint256",
              "name": "value",
              "type": "uint256"
            },
            {
              "internalType": "bytes",
              "name": "data",
              "type": "bytes"
            }
          ],
          "internalType": "struct IModuleCalls.Transaction[]",
          "name": "_txs",
          "type": "tuple[]"
        }
      ],
      "name": "selfExecute",
      "outputs": [],
      "stateMutability": "nonpayable",
      "type": "function"
    },
    {
      "inputs": [
        {
          "internalType": "bytes4",
          "name": "_interfaceID",
          "type": "bytes4"
        }
      ],
      "name": "supportsInterface",
      "outputs": [
        {
          "internalType": "bool",
          "name": "",
          "type": "bool"
        }
      ],
      "stateMutability": "pure",
      "type": "function"
    }
  ],
  "bytecode": "0x608060405234801561001057600080fd5b506125c0806100206000396000f3fe60806040526004361061007b5760003560e01c80637a9a16281161004e5780637a9a1628146101605780638c3f55631461018957806390042baf146101c6578063affed0e0146101f65761007b565b806301ffc9a7146100805780631626ba7e146100bd57806320c13b0b146100fa57806361c2926c14610137575b600080fd5b34801561008c57600080fd5b506100a760048036038101906100a29190611a46565b610221565b6040516100b49190611ef9565b60405180910390f35b3480156100c957600080fd5b506100e460048036038101906100df91906119ee565b610233565b6040516100f19190611f5f565b60405180910390f35b34801561010657600080fd5b50610121600480360381019061011c9190611a6f565b6102ae565b60405161012e9190611f5f565b60405180910390f35b34801561014357600080fd5b5061015e6004803603810190610159919061192e565b610348565b005b34801561016c57600080fd5b506101876004803603810190610182919061196f565b610389565b005b34801561019557600080fd5b506101b060048036038101906101ab9190611b25565b6103cc565b6040516101bd9190612024565b60405180910390f35b6101e060048036038101906101db9190611ae4565b610408565b6040516101ed9190611ede565b60405180910390f35b34801561020257600080fd5b5061020b6104ea565b6040516102189190612024565b60405180910390f35b600061022c826104fb565b9050919050565b600061028b6102418561057d565b84848080601f016020809104026020016040519081016040528093929190818152602001838380828437600081840152601f19601f82011690508083019250505050505050610603565b1561029f57631626ba7e60e01b90506102a7565b600060e01b90505b9392505050565b60006103246102da8686604051808383808284378083019250505092505050604051809103902061057d565b84848080601f016020809104026020016040519081016040528093929190818152602001838380828437600081840152601f19601f82011690508083019250505050505050610603565b15610338576320c13b0b60e01b9050610340565b600060e01b90505b949350505050565b60006103798260405160200161035e9190611fef565b6040516020818303038152906040528051906020012061057d565b9050610385818361061e565b5050565b60006103ba8460405160200161039f9190611f9a565b6040516020818303038152906040528051906020012061057d565b90506103c6818561061e565b50505050565b60006103fe7f8d0bf1fd623d628c741362c1289948e57b3e2905218c676d3e69abee36d6ae2e60001b8360001b6107ab565b60001c9050919050565b60003073ffffffffffffffffffffffffffffffffffffffff163373ffffffffffffffffffffffffffffffffffffffff161461048e576040517f08c379a00000000000000000000000000000000000000000000000000000000081526004018080602001828103825260278152602001806125646027913960400191505060405180910390fd5b81516020830134f090507fa506ad4e7f05eceba62a023c3219e5bd98a615f4fa87e2afb08a2da5cf62bf0c81604051808273ffffffffffffffffffffffffffffffffffffffff16815260200191505060405180910390a1919050565b60006104f660006103cc565b905090565b60007f90042baf000000000000000000000000000000000000000000000000000000007bffffffffffffffffffffffffffffffffffffffffffffffffffffffff1916827bffffffffffffffffffffffffffffffffffffffffffffffffffffffff1916141561056c5760019050610578565b610575826107ea565b90505b919050565b60008046905080308460405160200180807f19010000000000000000000000000000000000000000000000000000000000008152506002018481526020018373ffffffffffffffffffffffffffffffffffffffff1660601b8152601401828152602001935050505060405160208183030381529060405280519060200120915050919050565b600080610610848461086c565b505090508091505092915050565b60005b81518110156107a657600082828151811061063857fe5b602002602001015190506000606082600001511561068b576040517f08c379a000000000000000000000000000000000000000000000000000000000815260040161068290611fcf565b60405180910390fd5b82604001515a10156106d2576040517f08c379a00000000000000000000000000000000000000000000000000000000081526004016106c990611f7a565b60405180910390fd5b826060015173ffffffffffffffffffffffffffffffffffffffff168360800151600085604001511461070857846040015161070a565b5a5b908560a0015160405161071d9190611ec7565b600060405180830381858888f193505050503d806000811461075b576040519150601f19603f3d011682016040523d82523d6000602084013e610760565b606091505b508092508193505050811561078a578560405161077d9190611f14565b60405180910390a0610796565b610795838783610ae2565b5b5050508080600101915050610621565b505050565b60008083836040516020018083815260200182815260200192505050604051602081830303815290604052805190602001209050805491505092915050565b60007f389901c7000000000000000000000000000000000000000000000000000000007bffffffffffffffffffffffffffffffffffffffffffffffffffffffff1916827bffffffffffffffffffffffffffffffffffffffffffffffffffffffff1916141561085b5760019050610867565b61086482610b32565b90505b919050565b600080600080600061087d86610bfc565b9150915060008261ffff1660001b905060005b8751831015610aac5760008060006108b1868c610c6f90919063ffffffff16565b8260ff1692508160ff16915080985081945082955050505060018314156108f2576108e5868c610cfb90919063ffffffff16565b8097508192505050610a55565b600083141561092f576060610910878d610d9290919063ffffffff16565b80985081925050506109228d82610e76565b9150828501945050610a54565b6002831415610a025761094b868c610cfb90919063ffffffff16565b80975081925050506000610968878d61124890919063ffffffff16565b8161ffff1691508098508192505050606061098e88838f6112cd9092919063ffffffff16565b80995081925050506109a18e84836113d0565b6109f6576040517f08c379a00000000000000000000000000000000000000000000000000000000081526004018080602001828103825260328152602001806123ef6032913960400191505060405180910390fd5b83860195505050610a53565b6040517f08c379a000000000000000000000000000000000000000000000000000000000815260040180806020018281038252602c81526020018061230c602c913960400191505060405180910390fd5b5b5b848282604051602001808481526020018381526020018273ffffffffffffffffffffffffffffffffffffffff1681526020019350505050604051602081830303815290604052805190602001209450505050610890565b600080610ab884611603565b915091508561ffff168310158015610acd5750815b81859850985098505050505050509250925092565b826020015115610af457805160208201fd5b7f3dbd1590ea96dd3253a91f24e64e3a502e1225d602a5731357bc12643070ccd78282604051610b25929190611f2f565b60405180910390a1505050565b6000807bffffffffffffffffffffffffffffffffffffffffffffffffffffffff1916827bffffffffffffffffffffffffffffffffffffffffffffffffffffffff19161480610bdd57507f36e78175000000000000000000000000000000000000000000000000000000007bffffffffffffffffffffffffffffffffffffffffffffffffffffffff1916827bffffffffffffffffffffffffffffffffffffffffffffffffffffffff1916145b15610beb5760019050610bf7565b610bf482611613565b90505b919050565b60008082602001518060f01c92506002915050825160021115610c6a576040517f08c379a000000000000000000000000000000000000000000000000000000000815260040180806020018281038252602781526020018061235b6027913960400191505060405180910390fd5b915091565b6000806000846020018401518060f81c935060ff8160f01c16925060028501915050838111610c9a57fe5b8451811115610cf4576040517f08c379a00000000000000000000000000000000000000000000000000000000081526004018080602001828103825260268152602001806124bf6026913960400191505060405180910390fd5b9250925092565b6000808360200183015173ffffffffffffffffffffffffffffffffffffffff8160601c16925060148401915050828111610d3157fe5b8351811115610d8b576040517f08c379a00000000000000000000000000000000000000000000000000000000081526004018080602001828103825260238152602001806123386023913960400191505060405180910390fd5b9250929050565b60606000604267ffffffffffffffff81118015610dae57600080fd5b506040519080825280601f01601f191660200182016040528015610de15781602001600182028036833780820191505090505b50915082840160200180516020840152602081015160408401526022810151604284015260428401915050828111610e1557fe5b8351811115610e6f576040517f08c379a00000000000000000000000000000000000000000000000000000000081526004018080602001828103825260238152602001806124606023913960400191505060405180910390fd5b9250929050565b60006042825114610ed2576040517f08c379a000000000000000000000000000000000000000000000000000000000815260040180806020018281038252603a8152602001806122d2603a913960400191505060405180910390fd5b600082600184510381518110610ee457fe5b602001015160f81c60f81b60f81c60ff169050600083604081518110610f0657fe5b602001015160f81c60f81b60f81c90506000610f2c60008661166490919063ffffffff16565b90506000610f4460208761166490919063ffffffff16565b90507f7fffffffffffffffffffffffffffffff5d576e7357a4501ddfe92f46681b20a08160001c1115610fc2576040517f08c379a000000000000000000000000000000000000000000000000000000000815260040180806020018281038252603d815260200180612295603d913960400191505060405180910390fd5b601b8360ff1614158015610fda5750601c8360ff1614155b15611030576040517f08c379a000000000000000000000000000000000000000000000000000000000815260040180806020018281038252603d815260200180612382603d913960400191505060405180910390fd5b60018414156110a45760018784848460405160008152602001604052604051808581526020018460ff1681526020018381526020018281526020019450505050506020604051602081039080840390855afa158015611093573d6000803e3d6000fd5b5050506020604051035194506111b8565b60028414156111665760018760405160200180807f19457468657265756d205369676e6564204d6573736167653a0a333200000000815250601c018281526020019150506040516020818303038152906040528051906020012084848460405160008152602001604052604051808581526020018460ff1681526020018381526020018281526020019450505050506020604051602081039080840390855afa158015611155573d6000803e3d6000fd5b5050506020604051035194506111b7565b6040517f08c379a000000000000000000000000000000000000000000000000000000000815260040180806020018281038252603c815260200180612483603c913960400191505060405180910390fd5b5b600073ffffffffffffffffffffffffffffffffffffffff168573ffffffffffffffffffffffffffffffffffffffff16141561123e576040517f08c379a00000000000000000000000000000000000000000000000000000000081526004018080602001828103825260308152602001806123bf6030913960400191505060405180910390fd5b5050505092915050565b6000808360200183015161ffff8160f01c1692506002840191505082811161126c57fe5b83518111156112c6576040517f08c379a00000000000000000000000000000000000000000000000000000000081526004018080602001828103825260228152602001806125066022913960400191505060405180910390fd5b9250929050565b606060008267ffffffffffffffff811180156112e857600080fd5b506040519080825280601f01601f19166020018201604052801561131b5781602001600182028036833780820191505090505b509150838501602001600060205b85811015611347578183015181860152809150602081019050611329565b85602001850180518385015183880152808252878901955050505050508381101561136e57fe5b84518111156113c8576040517f08c379a00000000000000000000000000000000000000000000000000000000081526004018080602001828103825260218152602001806124e56021913960400191505060405180910390fd5b935093915050565b600080826001845103815181106113e357fe5b602001015160f81c60f81b60f81c60ff16905060018114806114055750600281145b15611449578373ffffffffffffffffffffffffffffffffffffffff1661142b8685610e76565b73ffffffffffffffffffffffffffffffffffffffff161491506115fb565b60038114156115a9576000835190506001810384528473ffffffffffffffffffffffffffffffffffffffff16631626ba7e87866040518363ffffffff1660e01b81526004018083815260200180602001828103825283818151815260200191508051906020019080838360005b838110156114d15780820151818401526020810190506114b6565b50505050905090810190601f1680156114fe5780820380516001836020036101000a031916815260200191505b50935050505060206040518083038186803b15801561151c57600080fd5b505afa158015611530573d6000803e3d6000fd5b505050506040513d602081101561154657600080fd5b81019080805190602001909291905050507bffffffffffffffffffffffffffffffffffffffffffffffffffffffff1916631626ba7e60e01b7bffffffffffffffffffffffffffffffffffffffffffffffffffffffff1916149250808452506115fa565b6040517f08c379a000000000000000000000000000000000000000000000000000000000815260040180806020018281038252603f815260200180612421603f913960400191505060405180910390fd5b5b509392505050565b6000806001600091509150915091565b60006301ffc9a760e01b7bffffffffffffffffffffffffffffffffffffffffffffffffffffffff1916827bffffffffffffffffffffffffffffffffffffffffffffffffffffffff1916149050919050565b600060208201835110156116c3576040517f08c379a000000000000000000000000000000000000000000000000000000000815260040180806020018281038252603c815260200180612528603c913960400191505060405180910390fd5b60006020830190508084015191505092915050565b60006116eb6116e684612070565b61203f565b9050808382526020820190508260005b8581101561172b57813585016117118882611865565b8452602084019350602083019250506001810190506116fb565b5050509392505050565b60006117486117438461209c565b61203f565b90508281526020810184848401111561176057600080fd5b61176b8482856121cc565b509392505050565b60008135905061178281612221565b92915050565b600082601f83011261179957600080fd5b81356117a98482602086016116d8565b91505092915050565b6000813590506117c181612238565b92915050565b6000813590506117d68161224f565b92915050565b6000813590506117eb81612266565b92915050565b60008083601f84011261180357600080fd5b8235905067ffffffffffffffff81111561181c57600080fd5b60208301915083600182028301111561183457600080fd5b9250929050565b600082601f83011261184c57600080fd5b813561185c848260208601611735565b91505092915050565b600060c0828403121561187757600080fd5b61188160c061203f565b90506000611891848285016117b2565b60008301525060206118a5848285016117b2565b60208301525060406118b984828501611919565b60408301525060606118cd84828501611773565b60608301525060806118e184828501611919565b60808301525060a082013567ffffffffffffffff81111561190157600080fd5b61190d8482850161183b565b60a08301525092915050565b6000813590506119288161227d565b92915050565b60006020828403121561194057600080fd5b600082013567ffffffffffffffff81111561195a57600080fd5b61196684828501611788565b91505092915050565b60008060006060848603121561198457600080fd5b600084013567ffffffffffffffff81111561199e57600080fd5b6119aa86828701611788565b93505060206119bb86828701611919565b925050604084013567ffffffffffffffff8111156119d857600080fd5b6119e48682870161183b565b9150509250925092565b600080600060408486031215611a0357600080fd5b6000611a11868287016117c7565b935050602084013567ffffffffffffffff811115611a2e57600080fd5b611a3a868287016117f1565b92509250509250925092565b600060208284031215611a5857600080fd5b6000611a66848285016117dc565b91505092915050565b60008060008060408587031215611a8557600080fd5b600085013567ffffffffffffffff811115611a9f57600080fd5b611aab878288016117f1565b9450945050602085013567ffffffffffffffff811115611aca57600080fd5b611ad6878288016117f1565b925092505092959194509250565b600060208284031215611af657600080fd5b600082013567ffffffffffffffff811115611b1057600080fd5b611b1c8482850161183b565b91505092915050565b600060208284031215611b3757600080fd5b6000611b4584828501611919565b91505092915050565b6000611b5a8383611e20565b905092915050565b611b6b8161214e565b82525050565b611b7a8161214e565b82525050565b6000611b8b826120dc565b611b9581856120ff565b935083602082028501611ba7856120cc565b8060005b85811015611be35784840389528151611bc48582611b4e565b9450611bcf836120f2565b925060208a01995050600181019050611bab565b50829750879550505050505092915050565b611bfe81612160565b82525050565b611c0d81612160565b82525050565b611c1c8161216c565b82525050565b611c2b81612176565b82525050565b6000611c3c826120e7565b611c468185612110565b9350611c568185602086016121db565b611c5f81612210565b840191505092915050565b6000611c75826120e7565b611c7f8185612121565b9350611c8f8185602086016121db565b611c9881612210565b840191505092915050565b6000611cae826120e7565b611cb88185612132565b9350611cc88185602086016121db565b80840191505092915050565b6000611ce160298361213d565b91507f47756573744d6f64756c65235f6578656375746547756573743a204e4f545f4560008301527f4e4f5547485f47415300000000000000000000000000000000000000000000006020830152604082019050919050565b6000611d4760068361213d565b91507f67756573743a00000000000000000000000000000000000000000000000000006000830152602082019050919050565b6000611d8760338361213d565b91507f47756573744d6f64756c65235f6578656375746547756573743a2064656c656760008301527f61746543616c6c206e6f7420616c6c6f776564000000000000000000000000006020830152604082019050919050565b6000611ded60058361213d565b91507f73656c663a0000000000000000000000000000000000000000000000000000006000830152602082019050919050565b600060c083016000830151611e386000860182611bf5565b506020830151611e4b6020860182611bf5565b506040830151611e5e6040860182611ea9565b506060830151611e716060860182611b62565b506080830151611e846080860182611ea9565b5060a083015184820360a0860152611e9c8282611c31565b9150508091505092915050565b611eb2816121c2565b82525050565b611ec1816121c2565b82525050565b6000611ed38284611ca3565b915081905092915050565b6000602082019050611ef36000830184611b71565b92915050565b6000602082019050611f0e6000830184611c04565b92915050565b6000602082019050611f296000830184611c13565b92915050565b6000604082019050611f446000830185611c13565b8181036020830152611f568184611c6a565b90509392505050565b6000602082019050611f746000830184611c22565b92915050565b60006020820190508181036000830152611f9381611cd4565b9050919050565b60006040820190508181036000830152611fb381611d3a565b90508181036020830152611fc78184611b80565b905092915050565b60006020820190508181036000830152611fe881611d7a565b9050919050565b6000604082019050818103600083015261200881611de0565b9050818103602083015261201c8184611b80565b905092915050565b60006020820190506120396000830184611eb8565b92915050565b6000604051905081810181811067ffffffffffffffff821117156120665761206561220e565b5b8060405250919050565b600067ffffffffffffffff82111561208b5761208a61220e565b5b602082029050602081019050919050565b600067ffffffffffffffff8211156120b7576120b661220e565b5b601f19601f8301169050602081019050919050565b6000819050602082019050919050565b600081519050919050565b600081519050919050565b6000602082019050919050565b600082825260208201905092915050565b600082825260208201905092915050565b600082825260208201905092915050565b600081905092915050565b600082825260208201905092915050565b6000612159826121a2565b9050919050565b60008115159050919050565b6000819050919050565b60007fffffffff0000000000000000000000000000000000000000000000000000000082169050919050565b600073ffffffffffffffffffffffffffffffffffffffff82169050919050565b6000819050919050565b82818337600083830152505050565b60005b838110156121f95780820151818401526020810190506121de565b83811115612208576000848401525b50505050565bfe5b6000601f19601f8301169050919050565b61222a8161214e565b811461223557600080fd5b50565b61224181612160565b811461224c57600080fd5b50565b6122588161216c565b811461226357600080fd5b50565b61226f81612176565b811461227a57600080fd5b50565b612286816121c2565b811461229157600080fd5b5056fe5369676e617475726556616c696461746f72237265636f7665725369676e65723a20696e76616c6964207369676e6174757265202773272076616c75655369676e617475726556616c696461746f72237265636f7665725369676e65723a20696e76616c6964207369676e6174757265206c656e6774684d6f64756c6541757468235f7369676e617475726556616c69646174696f6e20494e56414c49445f464c41474c696242797465732372656164416464726573733a204f55545f4f465f424f554e44534c696242797465732372656164466972737455696e7431363a204f55545f4f465f424f554e44535369676e617475726556616c696461746f72237265636f7665725369676e65723a20696e76616c6964207369676e6174757265202776272076616c75655369676e617475726556616c696461746f72237265636f7665725369676e65723a20494e56414c49445f5349474e45524d6f64756c6541757468235f7369676e617475726556616c69646174696f6e3a20494e56414c49445f5349474e41545552455369676e617475726556616c696461746f7223697356616c69645369676e61747572653a20554e535550504f525445445f5349474e41545552455f545950454c696242797465732372656164427974657336363a204f55545f4f465f424f554e44535369676e617475726556616c696461746f72237265636f7665725369676e65723a20554e535550504f525445445f5349474e41545552455f545950454c69624279746573237265616455696e743855696e74383a204f55545f4f465f424f554e44534c69624279746573237265616442797465733a204f55545f4f465f424f554e44534c69624279746573237265616455696e7431363a204f55545f4f465f424f554e44534c696242797465732372656164427974657333323a20475245415445525f4f525f455155414c5f544f5f33325f4c454e4754485f52455155495245444d6f64756c6553656c6641757468236f6e6c7953656c663a204e4f545f415554484f52495a4544a26469706673582212204d20015070fd0bbfaaa7be21d4f730efbaa5d233aefdabe5167a36f0bc56475264736f6c63430007060033",
  "linkReferences": {},
  "deployedLinkReferences": {}
}