{
  "_format": "hh-sol-artifact-1",
  "contractName": "ModuleMock",
  "sourceName": "contracts/mocks/ModuleMock.sol",
  "abi": [
    {
      "anonymous": false,
      "inputs": [],
      "name": "Pong",
      "type": "event"
    },
    {
      "inputs": [],
      "name": "ping",
      "outputs": [],
      "stateMutability": "nonpayable",
      "type": "function"
    }
  ],
  "bytecode": "0x6080604052348015600f57600080fd5b5060998061001e6000396000f3fe6080604052348015600f57600080fd5b506004361060285760003560e01c80635c36b18614602d575b600080fd5b60336035565b005b7f4d015fcc2a20c24d7be893b3a525eac864b5a53a5f88ef7201a600465c73314e60405160405180910390a156fea2646970667358221220d1bb49c1937d5c412da4c0e8924800b88921e7c5535ad118743fff2dce8ae20964736f6c63430007060033",
  "linkReferences": {},
  "deployedLinkReferences": {}
}